:020000040800F2
:10000000000002208D060008DD060008DD0600085D
:10001000DD060008DD060008DD060008000000001F
:10002000000000000000000000000000DD060008E5
:10003000DD06000800000000DD060008C10500081C
:10004000DD060008DD060008DD060008DD06000804
:10005000DD060008DD060008DD060008DD060008F4
:10006000DD060008DD060008DD060008DD060008E4
:10007000DD060008DD060008DD060008DD060008D4
:10008000DD060008DD060008E5050008DD060008BD
:10009000DD060008DD060008DD060008DD060008B4
:1000A000DD060008DD060008DD060008DD060008A4
:1000B000DD0600084D060008DD060008DD06000824
:1000C000DD060008DD060008DD060008DD06000884
:1000D000DD060008DD060008DD060008DD06000874
:1000E000DD060008DD060008DD060008DD06000864
:1000F000DD060008DD060008DD060008DD06000854
:10010000DD060008DD060008DD060008DD06000843
:10011000DD060008DD060008DD060008DD06000833
:10012000F9050008DD060008DD060008DD06000808
:10013000DD060008DD060008DD060008DD06000813
:10014000DD060008DD060008DD060008DD06000803
:10015000DD060008DD060008DD060008DD060008F3
:10016000DD060008DD060008DD060008DD060008E3
:10017000DD060008DD060008DD06000800000000BE
:08018000DD060008DD060008A1
:1001880010B5054C237833B9044B13B10448AFF3C9
:1001980000800123237010BD000000200000000033
:1001A8002807000808B5034B1BB103490348AFF300
:1001B800008008BD00000000040000202807000897
:1001C800034AD2F8883043F47003C2F88830704785
:1001D80000ED00E008B500F035F800F0D3F800F0C5
:1001E800ADF800F0B7F900F03DF900F009F90CE0BE
:1001F8000F4B1A8841F2670303FB02F20D4B83FB96
:1002080002131344DB120C4A93630C4B1B78002B2C
:10021800EED00A4B00221A70094A1188044B198043
:100228005188598091889980D288DA80E0E700BFA8
:100238001C000020810008800004004027000020E6
:100248002C0000203B4A136823F0F80343F0800396
:10025800136000239360374B9B6813F00C0FFAD19F
:10026800344A136823F080731360324B1B6813F011
:10027800007FFAD12F4A136823F4102313602D4B03
:100288001B6813F4003FFAD12A4B1A6822F4802223
:100298001A601A6842F480321A60264B1B6813F4FD
:1002A800003FFAD0234B1A6842F400221A60002259
:1002B8005A605A6842F480025A605A6842F004024E
:1002C8005A605A6842F424525A605A6822F44032FA
:1002D8005A605A6842F040725A609A6842F00202C4
:1002E8009A609A689A609A6842F4A0529A609A68EA
:1002F80042F400429A609A6842F4C0029A609A688E
:1003080042F0C0629A609A6842F000429A609A6825
:1003180042F040529A6008490A6842F005020A60B1
:100328001A6842F080721A60024B1B6813F0007F53
:10033800FAD0704700380240003C02404FF0E023FA
:100348001A6922F001021A611A6942F002021A615E
:100358001A6942F004021A615A6902F07F4242F4B3
:10036800243242F03F025A619A6902F07F4242F415
:10037800243242F03F029A611A6942F001021A617E
:10038800704700001B4A136B43F0050313631A4BB5
:100398001A6842F480721A609A6842F400729A608D
:1003A8001A6842F400421A601A6A42F000521A624D
:1003B8001A6842F480521A609A6942F040029A61BF
:1003C8000E4A116841F400211160916841F44021FE
:1003D8009160516A21F0F00151621A6842F40032CA
:1003E8001A609A6842F440329A605A6A22F00F0200
:1003F8005A6270470038024000000240000802407C
:10040800154A136C43F002031364144B09229A62D1
:1004180041F26702DA621A6842F020021A609A69A9
:1004280022F440729A619A6942F4D0429A611A6A37
:1004380042F010021A625A6842F020025A601A68A2
:1004480042F001021A60DA6842F00102DA60044BF5
:100458004FF000521A607047003802400004004014
:1004680000E100E082B0374A536C43F48073536470
:10047800354B1A6842F003021A60DA6822F0030268
:10048800DA601A6842F00C021A60DA6822F00C028C
:10049800DA601A6842F030021A60DA6822F0300234
:1004A800DA60A3F55D435A6842F480325A605A68AC
:1004B80042F400025A60A3F540735A6822F0407271
:1004C8005A605A6842F480725A609A6822F400624C
:1004D8009A609A6842F080529A609A6842F0006284
:1004E8009A609A6842F480729A609A6842F400723C
:1004F8009A601A6942F001021A611A6942F0080208
:100508001A611A6942F040021A611A6942F40072CB
:100518001A614FF44012DA620C4A5A639A6842F040
:1005280001029A600A4B4FF480221A60002301935B
:1005380002E0019B01330193019BB3F57A7FF8DB5D
:1005480002B07047003802400000024020880100D5
:1005580000E100E0124A136B43F48003136302F5D1
:100568003052136923F0010313610E4B1B6913F01A
:10057800010FFAD10B4B04225A610B4A9A610B4ABC
:10058800DA610B4A1A611A6942F001021A61094BD1
:100598004FF080725A60102283F83823704700BFEA
:1005A80000380240006402404C2001402C0000202A
:1005B800102D010000E100E0054A13880133138083
:1005C800044B1B781BB1044A13880133138070470E
:1005D800240000203400002038000020024BDB6C8F
:1005E8009BB2024A13807047002001402800002077
:1005F8000F4B1B6813F0200F0AD00D4A936843F085
:10060800200393600B4B01221A700B4B5A695A61F5
:100618000A4B1B6813F0200F09D0094A13780133DD
:10062800DBB21370054A136823F020031360704788
:100638000064024027000020000002400020014022
:10064800260000200C4B1B6913F0010F13D00A4A37
:10065800136923F001031361084A138801339BB21D
:100668001380B3F57A7F06D3134600221A80044A12
:1006780013880133138070470004004038000020BD
:1006880036000020DFF834D00D480E490E4A00230A
:1006980002E0D458C4500433C4188C42F9D30B4A2E
:1006A8000B4C002301E013600432A242FBD3FFF796
:1006B80087FD00F011F8FFF78DFD7047000002205C
:1006C800000000200000002048070008000000206B
:1006D8003C000020FEE7000070B50D4B0D4D5B1B84
:1006E8009C100026A64209D100F01AF80A4D0B4BBF
:1006F8005B1B9C100026A64205D170BD55F8043B33
:1007080098470136EEE755F8043B98470136F2E77B
:100718004007000840070008400700084407000891
:10072800F8B500BFF8BC08BC9E467047F8B500BFD6
:08073800F8BC08BC9E467047A6
:04074000AD010008FF
:04074400890100081F
:040000050800068D5C
:00000001FF
