:020000040800F2
:1000000000000220C50F0008151000081510000898
:100010001510000815100008151000080000000059
:1000200000000000000000000000000015100008A3
:10003000151000080000000015100008890E0008C7
:1000400015100008151000081510000815100008FC
:1000500015100008151000081510000815100008EC
:1000600015100008151000081510000815100008DC
:1000700015100008151000081510000815100008CC
:1000800015100008151000081510000815100008BC
:1000900015100008151000081510000815100008AC
:1000A000151000081510000815100008151000089C
:1000B000890F0008090F0008151000081510000826
:1000C000151000081510000815100008151000087C
:1000D000151000081510000815100008151000086C
:1000E000D50E00081510000815100008151000089E
:1000F000151000081510000815100008151000084C
:10010000151000081510000815100008151000083B
:10011000151000081510000815100008151000082B
:10012000151000081510000815100008151000081B
:10013000151000081510000815100008151000080B
:1001400015100008151000081510000815100008FB
:1001500015100008151000081510000815100008EB
:1001600015100008151000081510000815100008DB
:1001700015100008151000081510000800000000F8
:0801800015100008151000081D
:1001880081F0004102E000BF83F0004330B54FEA40
:1001980041044FEA430594EA050F08BF90EA020FAD
:1001A8001FBF54EA000C55EA020C7FEA645C7FEA40
:1001B800655C00F0E2804FEA5454D4EB5555B8BF63
:1001C8006D420CDD2C4480EA020281EA030382EAD4
:1001D800000083EA010180EA020281EA0303362D66
:1001E80088BF30BD11F0004F4FEA01314FF4801C39
:1001F8004CEA113102D0404261EB410113F0004F4B
:100208004FEA03334CEA133302D0524263EB430301
:1002180094EA050F00F0A780A4F10104D5F1200E9F
:100228000DDB02FA0EFC22FA05F2801841F10001FA
:1002380003FA0EF2801843FA05F359410EE0A5F1CE
:1002480020050EF1200E012A03FA0EFC28BF4CF0FF
:10025800020C43FA05F3C01851EBE37101F00045B5
:1002680007D54FF0000EDCF1000C7EEB00006EEBC2
:100278000101B1F5801F1BD3B1F5001F0CD349084C
:100288005FEA30004FEA3C0C04F101044FEA4452A3
:1002980012F5800F80F09A80BCF1004F08BF5FEA2A
:1002A800500C50F1000041EB045141EA050130BD0A
:1002B8005FEA4C0C404141EB0101013C28BFB1F51C
:1002C800801FE9D291F0000F04BF01460020B1FA67
:1002D80081F308BF2033A3F10B03B3F120020CDA3A
:1002E8000C3208DD02F1140CC2F10C0201FA0CF018
:1002F80021FA02F10CE002F11402D8BFC2F1200C7D
:1003080001FA02F120FA0CFCDCBF41EA0C01904032
:10031800E41AA2BF01EB0451294330BD6FEA04047B
:100328001F3C1CDA0C340EDC04F11404C4F1200266
:1003380020FA04F001FA02F340EA030021FA04F378
:1003480045EA030130BDC4F10C04C4F1200220FACF
:1003580002F001FA04F340EA0300294630BD21FA0D
:1003680004F0294630BD94F0000F83F4801306BFD3
:1003780081F480110134013D4EE77FEA645C18BFC7
:100388007FEA655C29D094EA050F08BF90EA020F5E
:1003980005D054EA000C04BF1946104630BD91EA56
:1003A800030F1EBF0021002030BD5FEA545C05D159
:1003B8004000494128BF41F0004130BD14F5800498
:1003C8003CBF01F5801130BD01F0004545F0FE410C
:1003D80041F470014FF0000030BD7FEA645C1ABF41
:1003E800194610467FEA655C1CBF0B46024650EA78
:1003F800013406BF52EA033591EA030F41F40021A4
:1004080030BD00BF90F0000F04BF0021704730B529
:100418004FF4806404F132044FF000054FF00001FE
:1004280050E700BF90F0000F04BF0021704730B5BF
:100438004FF4806404F1320410F0004548BF404294
:100448004FF000013EE700BF42004FEAE2014FEAE9
:1004580031014FEA02701FBF12F07F4393F07F4FC4
:1004680081F06051704732F07F4208BF704793F0C7
:100478007F4F04BF41F40021704730B54FF46074DA
:1004880001F0004521F000411CE700BF50EA0102DD
:1004980008BF704730B54FF000050AE050EA010286
:1004A80008BF704730B511F0004502D5404261EBF6
:1004B80041014FF4806404F132045FEA915C3FF437
:1004C800D8AE4FF003025FEADC0C18BF03325FEAD4
:1004D800DC0C18BF033202EBDC02C2F1200300FA85
:1004E80003FC20FA02F001FA03FE40EA0E0021FAAA
:1004F80002F11444BDE600BF70B54FF0FF0C4CF498
:10050800E06C1CEA11541DBF1CEA135594EA0C0F49
:1005180095EA0C0F00F0DEF82C4481EA030621EA84
:100528004C5123EA4C5350EA013518BF52EA0335BF
:1005380041F4801143F4801338D0A0FB02CE4FF071
:100548000005E1FB02E506F00042E0FB03E54FF0A1
:100558000006E1FB03569CF0000F18BF4EF0010E99
:10056800A4F1FF04B6F5007F64F5407404D25FEA95
:100578004E0E6D4146EB060642EAC62141EA555148
:100588004FEAC52040EA5E504FEACE2EB4F1FD0C8A
:1005980088BFBCF5E06F1ED8BEF1004F08BF5FEA08
:1005A800500E50F1000041EB045170BD06F00046BA
:1005B80046EA010140EA020081EA0301B4EB5C0467
:1005C800C2BFD4EB0C0541EA045170BD41F480115F
:1005D8004FF0000E013C00F3AB8014F1360FDEBF84
:1005E800002001F0004170BDC4F10004203C35DA60
:1005F8000C341BDC04F11404C4F1200500FA05F3E3
:1006080020FA04F001FA05F240EA020001F0004283
:1006180021F0004110EBD37021FA04F642EB0601F9
:100628005EEA430E08BF20EAD37070BDC4F10C0423
:10063800C4F1200500FA04F320FA05F001FA04F2E7
:1006480040EA020001F0004110EBD37041F10001D3
:100658005EEA430E08BF20EAD37070BDC4F12005DE
:1006680000FA05F24EEA020E20FA04F301FA05F246
:1006780043EA020321FA04F001F0004121FA04F2EE
:1006880020EA020000EBD3705EEA430E08BF20EABE
:10069800D37070BD94F0000F0FD101F000464000F8
:1006A80041EB010111F4801F08BF013CF7D041EA7A
:1006B800060195F0000F18BF704703F0004652007E
:1006C80043EB030313F4801F08BF013DF7D043EA4F
:1006D8000603704794EA0C0F0CEA135518BF95EA05
:1006E8000C0F0CD050EA410618BF52EA4306D1D18C
:1006F80081EA030101F000414FF0000070BD50EAAB
:10070800410606BF1046194652EA430619D094EA34
:100718000C0F02D150EA013613D195EA0C0F05D11E
:1007280052EA03361CBF104619460AD181EA030172
:1007380001F0004141F0FE4141F470014FF000002A
:1007480070BD41F0FE4141F4780170BD70B54FF0C5
:10075800FF0C4CF4E06C1CEA11541DBF1CEA135545
:1007680094EA0C0F95EA0C0F00F0A7F8A4EB050427
:1007780081EA030E52EA03354FEA013100F088801E
:100788004FEA03334FF0805545EA131343EA1263E7
:100798004FEA022245EA111545EA10654FEA00269C
:1007A8000EF000419D4208BF964244F1FD0404F555
:1007B800407402D25B084FEA3202B61A65EB0305B1
:1007C8005B084FEA32024FF480104FF4002CB6EB6E
:1007D800020E75EB030E22BFB61A754640EA0C00EE
:1007E8005B084FEA3202B6EB020E75EB030E22BF2E
:1007F800B61A754640EA5C005B084FEA3202B6EB6F
:10080800020E75EB030E22BFB61A754640EA9C002D
:100818005B084FEA3202B6EB020E75EB030E22BFFD
:10082800B61A754640EADC0055EA060E18D04FEABB
:10083800051545EA16754FEA06164FEAC30343EA5B
:1008480052734FEAC2025FEA1C1CC0D111F4801F28
:100858000BD141EA00014FF000004FF0004CB6E721
:1008680011F4801F04BF01430020B4F1FD0C88BFC0
:10087800BCF5E06F3FF6AFAEB5EB030C04BFB6EBCB
:10088800020C5FEA500C50F1000041EB045170BDBE
:100898000EF0004E4EEA113114EB5C04C2BFD4EBEB
:1008A8000C0541EA045170BD41F480114FF0000E6F
:1008B800013C90E645EA060E8DE60CEA135594EAEB
:1008C8000C0F08BF95EA0C0F3FF43BAF94EA0C0FEE
:1008D8000AD150EA01347FF434AF95EA0C0F7FF463
:1008E80025AF104619462CE795EA0C0F06D152EAB7
:1008F80003353FF4FDAE1046194622E750EA41069B
:1009080018BF52EA43067FF4C5AE50EA41047FF4AB
:100918000DAF52EA43057FF4EBAE12E74FEA41020E
:10092800B2F1E04324BFB3F5001CDCF1FE5C0DD945
:1009380001F0004C4FEAC0024CEA5070B2F1004F8F
:1009480040EB830008BF20F00100704711F0804F92
:1009580021D113F13872BCBF01F00040704741F457
:1009680080114FEA5252C2F11802C2F1200C10FA5B
:100978000CF320FA02F018BF40F001004FEAC1233F
:100988004FEAD32303FA0CFC40EA0C0023FA02F3E3
:100998004FEA4303CCE77FEA625307D150EA0133B9
:1009A8001EBF4FF0FE4040F44000704701F0004089
:1009B80040F0FE4040F40000704700BF10B5054C01
:1009C800237833B9044B13B10448AFF300800123F3
:1009D800237010BD00000020000000006010000817
:1009E80008B5034B1BB103490348AFF3008008BDAA
:1009F800000000000400002060100008034AD2F83C
:100A0800883043F47003C2F88830704700ED00E086
:100A1800094A536B23F01F0303435363936843F05E
:100A280080439360044B1B6813F0020FFAD0024B0B
:100A3800D86C80B2704700BF002001400000000061
:100A480008B500F06BF800F0E5F800F067F900F081
:100A580041F900F099F900F0D3F91020FFF7D8FF19
:100A6800194B1880FFF7DEFC11A3D3E90023FFF729
:100A780043FD11A3D3E90023FFF768FEFFF74EFFFC
:100A8800124B1860FFF7E0FC02460B460CA1D1E9B7
:100A98000001FFF779FB00220D4BFFF757FE0022FC
:100AA8000C4BFFF773FBFFF739FF0B4B1860D4E7CC
:100AB800CDCCCCCCCCCC08400000000000FEAF4030
:100AC80052B81E85EB51E83F2E0000201C00002084
:100AD80000000440000039402000002000B500F06C
:100AE8000700C0F1070CBCF1040F28BF4FF0040C3D
:100AF800031D062B0FD9C31E4FF0FF3E0EFA0CF054
:100B080021EA000199400EFA03FE22EA0E0241EAA8
:100B180002005DF804FB0023EEE700003B4A13687F
:100B280023F0F80343F08003136000239360374BEE
:100B38009B6813F00C0FFAD1344A136823F08073C2
:100B48001360324B1B6813F0007FFAD12F4A1368E9
:100B580023F4102313602D4B1B6813F4003FFAD1C4
:100B68002A4B1A6822F480221A601A6842F48032EA
:100B78001A60264B1B6813F4003FFAD0234B1A68FF
:100B880042F400221A6000225A605A6842F4800235
:100B98005A605A6842F004025A605A6842F4245271
:100BA8005A605A6822F440325A605A6842F04072D9
:100BB8005A609A6842F002029A609A689A609A6843
:100BC80042F4A0529A609A6842F400429A609A6885
:100BD80042F4C0029A609A6842F0C0629A609A68C9
:100BE80042F000429A609A6842F040529A6008497E
:100BF8000A6842F005020A601A6842F080721A60B8
:100C0800024B1B6813F0007FFAD07047003802408F
:100C1800003C0240F8B52A4A536C43F480435364BD
:100C2800284D2B6943F400532B61274C236843F468
:100C380000632360A36843F40063A360E36823F4BC
:100C48000063E3606B6943F002036B61236843F45C
:100C580080532360A36843F48053A360E36823F4BC
:100C68008053E360194FF86800221146C0F3022050
:100C7800FFF734FF0001C0B2154E86F828034FF481
:100C880080737360EB68EB60236843F010032360A4
:100C9800A36843F01003A360E36823F01003E36044
:100CA800F86800221146C0F30220FFF717FF000181
:100CB800C0B286F80A034FF480633360F8BD00BF02
:100CC8000038024000380140003C014000ED00E0DF
:100CD80000E100E04FF0E0231A6922F001021A61F6
:100CE8001A6942F002021A611A6942F004021A6192
:100CF8005A6902F07F4242F4243242F03F025A61BC
:100D08009A6902F07F4242F4243242F03F029A612B
:100D18001A6942F001021A6170470000174A136B02
:100D280043F005031363164B1A6842F400421A6035
:100D38001A6A42F000521A621A6842F400521A60A3
:100D48001A6A42F000721A620E4A116841F40021D0
:100D58001160916841F440219160516A21F0F001DD
:100D680051621A6842F400321A609A6842F44032BA
:100D78009A605A6A22F00F025A627047003802409D
:100D880000000240000802401A4A136C43F00203B4
:100D98001364194B63229A6242F2CF02DA629A69AB
:100DA80022F003029A619A6942F068029A611A6A0B
:100DB80042F001021A6241F671725A639A6922F48A
:100DC80040729A619A6942F4D0429A611A6A42F072
:100DD80010021A6240F64D429A631A6842F0010204
:100DE8001A60DA6842F00102DA60044B4FF00052F0
:100DF8001A607047003802400004004000E100E03B
:100E08001D4A536C43F4807353641C4B1A6842F0B8
:100E180003021A60DA6822F00302DA60A3F55D4380
:100E28005A6842F400325A605A6842F400025A6022
:100E3800A3F540735A6822F040725A605A6842F427
:100E480080725A609A6822F400629A609A6822F066
:100E580002029A601A6942F001021A61DA6A22F4FF
:100E68007002DA62DA6A22F47822DA629A6842F068
:100E780001029A60704700BF00380240000002403B
:100E88000C4A1388013313800B4A138801331380EB
:100E98000A4B1B781BB10A4A1388013313804FF0A1
:100EA8008043596A074A11801B68C3F30013064A36
:100EB800137070473E0000203000002039000020E9
:100EC800400000203C00002038000020094A5369F7
:100ED80043F400535361084B1B88642B08D9064B15
:100EE80000221A80054A1378B3FA83F35B0913705A
:100EF800704700BF003C01403E0000202C0000204D
:100F08001B4B1B6913F0010F2BD01A4A13680A33C5
:100F1800136007EE903AF8EE677A174B93ED007A74
:100F2800F4EEC77AF1EE10FA15DB10B5134C206811
:100F3800FFF78AFA0CA3D3E90023FFF727F9FFF795
:100F4800EDFC20600B4B00221A60094A136923F05C
:100F58000103136110BD064A136923F001031361ED
:100F680070477047AFF300809A9999999999B93F5A
:100F78000004004034000020240000202800002045
:100F88004FF080431B6913F0010F0FD04FF08043DF
:100F98001B6813F0100F0AD0074A1388013B13800F
:100FA8004FF08042136923F0010313617047024A2E
:100FB800138801331380F3E73A000020DFF834D0B8
:100FC8000D480E490E4A002302E0D458C450043399
:100FD800C4188C42F9D30B4A0B4C002301E0136070
:100FE8000432A242FBD3FFF709FD00F011F8FFF726
:100FF80027FD7047000002200000002000000020AC
:10100800801000080000002044000020FEE70000D7
:1010180070B50D4B0D4D5B1B9C100026A64209D1E7
:1010280000F01AF80A4D0B4B5B1B9C100026A642D9
:1010380005D170BD55F8043B98470136EEE755F8E1
:10104800043B98470136F2E778100008781000084A
:10105800781000087C100008F8B500BFF8BC08BC80
:101068009E467047F8B500BFF8BC08BC9E4670475E
:04107800E90900087A
:04107C00C50900089A
:0400000508000FC51B
:00000001FF
