:020000040800F2
:10000000000002207D070008CD070008CD0700088A
:10001000CD070008CD070008CD070008000000004C
:10002000000000000000000000000000CD070008F4
:10003000CD07000800000000CD07000841060008B9
:10004000CD070008CD070008CD070008CD07000840
:10005000CD070008CD070008CD070008CD07000830
:10006000CD070008CD070008CD070008CD07000820
:10007000CD070008CD070008CD070008CD07000810
:10008000CD070008CD070008650600080000000045
:10009000000000000000000000000000CD07000884
:1000A000CD070008CD070008CD070008CD070008E0
:1000B000CD070008C5060008CD070008CD070008D9
:1000C000CD070008CD070008CD070008CD070008C0
:1000D000CD070008CD070008CD070008000000008C
:1000E000CD070008CD070008CD070008000000007C
:1000F000000000000000000000000000CD07000824
:1001000000000000CD070008CD070008CD0700085B
:1001100000000000000000000000000000000000DF
:1001200079060008CD070008CD070008CD070008B4
:10013000CD070008000000000000000000000000E3
:10014000000000000000000000000000CD070008D3
:10015000CD070008CD070008CD070008CD0700082F
:10016000CD070008CD0700080000000000000000D7
:10017000000000000000000000000000000000007F
:1001800000000000CD070008000000000000000093
:08019000CD070008CD070008AF
:1001980010B5054C237833B9044B13B10448AFF3B9
:1001A80000800123237010BD08000020000000001B
:1001B8001808000808B5034B1BB103490348AFF3FF
:1001C800008008BD000000000C000020180800088E
:1001D800034AD2F8883043F47003C2F88830704775
:1001E80000ED00E038B50546244A936943F0400322
:1001F8009361012441F294139C420AD8BDB9204B63
:100208009C634FF4FA7000F0A3FA04F5FA74A4B2F0
:10021800F0E71C4608E01A4B9C634FF4FA7000F0B4
:1002280097FAA4F5FA74A4B214B1002DF3D038BD2E
:10023800124A936943F480039361012441F29413B1
:100248009C420BD8002DF2D10D4B9C634FF4FA70F1
:1002580000F07EFA04F5FA74A4B2EFE71C46002C0D
:10026800E5D0002DE3D1064B9C634FF4FA7000F003
:100278006FFAA4F5FA74A4B2F1E700BF00000240D7
:100288000004004008B500F01BF800F0B7F800F0D3
:1002980091F800F027F900F09DF900F0F1F802E07C
:1002A800054B01229A63054C2078FFF79BFF2378C2
:1002B800002BF8D0F4E700BF000400400000002045
:1002C8003A4A136823F0F80343F0800313600023CD
:1002D8009360364B9B6813F00C0FFAD1334A1368BE
:1002E80023F080731360314B1B6813F0007FFAD141
:1002F8002E4A136823F4102313602C4B1B6813F445
:10030800003FFAD1294B1A6822F480221A601A6831
:1003180042F480321A60254B1B6813F4003FFAD070
:10032800224B1A6842F400221A6000225A605A6866
:1003380042F480025A605A6842F008025A605A68C9
:1003480042F440525A605A6822F440325A605A685D
:1003580042F080625A609A6842F002029A609A6893
:100368009A609A6842F480529A609A689A609A6889
:1003780042F4C0029A609A6842F0C0629A609A6831
:1003880022F040429A609A6842F040529A600849C6
:100398000A6842F005020A601A6842F080721A6020
:1003A800024B1B6813F0007FFAD0704700380240F8
:1003B800003C02404FF0E0231A6922F001021A6162
:1003C8001A6942F002021A611A6942F004021A61BB
:1003D8005A6902F07F4242F4243242F03F025A61E5
:1003E8009A6902F07F4242F4243242F03F029A6155
:1003F8001A6942F001021A61704700001E4A136B25
:1004080043F005031363A2F54052136843F0010358
:1004180013601A4B196841F480711960996841F4A6
:1004280000719960196841F400411960196A41F036
:1004380000511962196841F480511960996941F0B5
:1004480040019961116841F400211160916841F4FB
:1004580040219160516A21F0F00151621A6842F41A
:1004680000321A609A6842F440329A605A6A22F05E
:100478000F025A62704700BF003802400000024075
:10048800154A136C43F002031364144B04229A6256
:1004980041F2BF22DA621A6842F020021A609A69B1
:1004A80022F440729A619A6942F4D0429A611A6AB7
:1004B80042F010021A625A6842F020025A601A6822
:1004C80042F001021A60DA6842F00102DA60044B75
:1004D8004FF000521A607047003802400004004094
:1004E80000E100E082B0374A536C43F480735364F0
:1004F800354B1A6842F003021A60DA6822F00302E8
:10050800DA601A6842F00C021A60DA6822F00C020B
:10051800DA601A6842F030021A60DA6822F03002B3
:10052800DA60A3F55D435A6842F480325A605A682B
:1005380042F400025A60A3F540735A6822F04072F0
:100548005A605A6842F480725A609A6822F40062CB
:100558009A609A6842F080529A609A6842F0006203
:100568009A609A6842F480729A609A6842F40072BB
:100578009A601A6942F006021A611A6942F030025A
:100588001A611A6942F040021A611A6942F400724B
:100598001A614FF44012DA620C4A5A639A6842F0C0
:1005A80001029A600A4B4FF480221A6000230193DB
:1005B80002E0019B01330193019BB3F57A7FF8DBDD
:1005C80002B0704700380240000002402088010055
:1005D80000E100E0124A136B43F48003136302F551
:1005E8003052136923F0010313610E4B1B6913F09A
:1005F800010FFAD10B4B04225A610B4A9A610B4A3C
:10060800DA610B4A1A611A6942F001021A61094B50
:100618004FF080725A60102283F83823704700BF69
:1006280000380240006402404C2001402C000020A9
:10063800102D010000E100E0054A13880133138002
:10064800044B1B781BB1044A13880133138070478D
:10065800240000203C00002042000020024BDB6CFC
:100668009BB2024A138070470020014028000020F6
:100678000E4B1B6813F0200F07D00C4A936843F009
:10068800200393600A4B01221A700A4B1B6813F06F
:10069800200F09D0084A13780133DBB21370054ADA
:1006A800136823F020031360704700BF0064024002
:1006B8002700002000200140260000201C4B1B6959
:1006C80013F0010F33D01A4A136923F001031361A1
:1006D800184B1B889BB207EE903AF8EEE77A9FED2D
:1006E800167A67EE877A154BC3ED007AD3ED007A58
:1006F800134B93ED007A77EEC77A124A92ED007A9F
:1007080067EE877A93ED007A77EE277AC3ED007A61
:100718000D4A138801339BB21380B3F57A7F06D351
:10072800134600221A80094A138801331380704740
:10073800000400402C000020DBB33E3A38000020C3
:1007480034000020040000203E000020400000206B
:10075800064B01221A70064B1B888342FBDB0023E1
:10076800034A1380014A1370704700BF3C00002001
:1007780042000020DFF834D00D480E490E4A00230D
:1007880002E0D458C4500433C4188C42F9D30B4A3D
:100798000B4C002301E013600432A242FBD3FFF7A5
:1007A80017FD00F011F8FFF76DFD704700000220FB
:1007B8000000002008000020380800080800002079
:1007C80044000020FEE7000070B50D4D0D4C641B81
:1007D800A4100026A64209D10B4D0C4C00F018F8C5
:1007E800641BA4100026A64205D170BD55F8043B31
:1007F80098470136EEE755F8043B98470136F2E78B
:1008080030080008300800083008000834080008DC
:10081800F8B500BFF8BC08BC9E467047F8B500BFE5
:08082800F8BC08BC9E467047B5
:04083000BD010008FE
:04083400990100081E
:08083800010000000AD7233C77
:040000050800077D6B
:00000001FF
