:020000040800F2
:1000000000500020D15E0008413E0008433E000839
:10001000453E0008473E0008493E00080000000039
:100020000000000000000000000000004B3E00083F
:100030004D3E0008000000004F3E0008513E000801
:10004000195F0008195F0008195F0008195F0008B0
:10005000195F0008195F0008195F0008195F0008A0
:10006000195F0008195F0008195F0008195F000890
:10007000195F0008195F0008195F0008195F000880
:10008000195F0008195F0008195F0008195F000870
:10009000593E0008195F0008195F0008195F000841
:1000A000195F0008195F0008195F0008195F000850
:1000B000195F0008693E0008195F0008195F000811
:1000C000195F0008195F0008195F0008195F000830
:1000D000195F0008195F0008195F0008195F000820
:1000E000195F0008195F0008195F00080000000090
:1000F0000000000000000000000000000000000000
:0C01000000000000000000005FF808F1A3
:1001100081F0004102E000BF83F0004330B54FEAB8
:1001200041044FEA430594EA050F08BF90EA020F25
:100130001FBF54EA000C55EA020C7FEA645C7FEAB8
:10014000655C00F0E2804FEA5454D4EB5555B8BFDB
:100150006D420CDD2C4480EA020281EA030382EA4C
:10016000000083EA010180EA020281EA0303362DDE
:1001700088BF30BD11F0004F4FEA01314FF4801CB1
:100180004CEA113102D0404261EB410113F0004FC3
:100190004FEA03334CEA133302D0524263EB43037A
:1001A00094EA050F00F0A780A4F10104D5F1200E18
:1001B0000DDB02FA0EFC22FA05F2801841F1000173
:1001C00003FA0EF2801843FA05F359410EE0A5F147
:1001D00020050EF1200E012A03FA0EFC28BF4CF078
:1001E000020C43FA05F3C01851EBE37101F000452E
:1001F00007D54FF0000EDCF1000C7EEB00006EEB3B
:100200000101B1F5801F1BD3B1F5001F0CD34908C4
:100210005FEA30004FEA3C0C04F101044FEA44521B
:1002200012F5800F80F09A80BCF1004F08BF5FEAA2
:10023000500C50F1000041EB045141EA050130BD82
:100240005FEA4C0C404141EB0101013C28BFB1F594
:10025000801FE9D291F0000F04BF01460020B1FADF
:1002600081F308BF2033A3F10B03B3F120020CDAB2
:100270000C3208DD02F1140CC2F10C0201FA0CF090
:1002800021FA02F10CE002F11402D8BFC2F1200CF5
:1002900001FA02F120FA0CFCDCBF41EA0C019040AB
:1002A000E41AA2BF01EB0451294330BD6FEA0404F4
:1002B0001F3C1CDA0C340EDC04F11404C4F12002DF
:1002C00020FA04F001FA02F340EA030021FA04F3F1
:1002D00045EA030130BDC4F10C04C4F1200220FA48
:1002E00002F001FA04F340EA0300294630BD21FA86
:1002F00004F0294630BD94F0000F83F4801306BF4C
:1003000081F480110134013D4EE77FEA645C18BF3F
:100310007FEA655C29D094EA050F08BF90EA020FD6
:1003200005D054EA000C04BF1946104630BD91EACE
:10033000030F1EBF0021002030BD5FEA545C05D1D1
:100340004000494128BF41F0004130BD14F5800410
:100350003CBF01F5801130BD01F0004545F0FE4184
:1003600041F470014FF0000030BD7FEA645C1ABFB9
:10037000194610467FEA655C1CBF0B46024650EAF0
:10038000013406BF52EA033591EA030F41F400211C
:1003900030BD00BF90F0000F04BF0021704730B5A2
:1003A0004FF4806404F132044FF000054FF0000177
:1003B00050E700BF90F0000F04BF0021704730B538
:1003C0004FF4806404F1320410F0004548BF40420D
:1003D0004FF000013EE700BF42004FEAE2014FEA62
:1003E00031014FEA02701FBF12F07F4393F07F4F3D
:1003F00081F06051704732F07F4208BF704793F040
:100400007F4F04BF41F40021704730B54FF4607452
:1004100001F0004521F000411CE700BF50EA010255
:1004200008BF704730B54FF000050AE050EA0102FE
:1004300008BF704730B511F0004502D5404261EB6E
:1004400041014FF4806404F132045FEA915C3FF4AF
:10045000D8AE4FF003025FEADC0C18BF03325FEA4C
:10046000DC0C18BF033202EBDC02C2F1200300FAFD
:1004700003FC20FA02F001FA03FE40EA0E0021FA22
:1004800002F11444BDE600BF70B54FF0FF0C4CF410
:10049000E06C1CEA11541DBF1CEA135594EA0C0FC2
:1004A00095EA0C0F00F0DEF82C4481EA030621EAFD
:1004B0004C5123EA4C5350EA013518BF52EA033538
:1004C00041F4801143F4801338D0A0FB02CE4FF0EA
:1004D0000005E1FB02E506F00042E0FB03E54FF01A
:1004E0000006E1FB03569CF0000F18BF4EF0010E12
:1004F000A4F1FF04B6F5007F64F5407404D25FEA0E
:100500004E0E6D4146EB060642EAC62141EA5551C0
:100510004FEAC52040EA5E504FEACE2EB4F1FD0C02
:1005200088BFBCF5E06F1ED8BEF1004F08BF5FEA80
:10053000500E50F1000041EB045170BD06F0004632
:1005400046EA010140EA020081EA0301B4EB5C04DF
:10055000C2BFD4EB0C0541EA045170BD41F48011D7
:100560004FF0000E013C00F3AB8014F1360FDEBFFC
:10057000002001F0004170BDC4F10004203C35DAD8
:100580000C341BDC04F11404C4F1200500FA05F35B
:1005900020FA04F001FA05F240EA020001F00042FC
:1005A00021F0004110EBD37021FA04F642EB060172
:1005B0005EEA430E08BF20EAD37070BDC4F10C049C
:1005C000C4F1200500FA04F320FA05F001FA04F260
:1005D00040EA020001F0004110EBD37041F100014C
:1005E0005EEA430E08BF20EAD37070BDC4F1200557
:1005F00000FA05F24EEA020E20FA04F301FA05F2BF
:1006000043EA020321FA04F001F0004121FA04F266
:1006100020EA020000EBD3705EEA430E08BF20EA36
:10062000D37070BD94F0000F0FD101F00046400070
:1006300041EB010111F4801F08BF013CF7D041EAF2
:10064000060195F0000F18BF704703F000465200F6
:1006500043EB030313F4801F08BF013DF7D043EAC7
:100660000603704794EA0C0F0CEA135518BF95EA7D
:100670000C0F0CD050EA410618BF52EA4306D1D104
:1006800081EA030101F000414FF0000070BD50EA23
:10069000410606BF1046194652EA430619D094EAAD
:1006A0000C0F02D150EA013613D195EA0C0F05D197
:1006B00052EA03361CBF104619460AD181EA0301EB
:1006C00001F0004141F0FE4141F470014FF00000A3
:1006D00070BD41F0FE4141F4780170BD70B54FF03E
:1006E000FF0C4CF4E06C1CEA11541DBF1CEA1355BE
:1006F00094EA0C0F95EA0C0F00F0A7F8A4EB0504A0
:1007000081EA030E52EA03354FEA013100F0888096
:100710004FEA03334FF0805545EA131343EA12635F
:100720004FEA022245EA111545EA10654FEA002614
:100730000EF000419D4208BF964244F1FD0404F5CD
:10074000407402D25B084FEA3202B61A65EB030529
:100750005B084FEA32024FF480104FF4002CB6EBE6
:10076000020E75EB030E22BFB61A754640EA0C0066
:100770005B084FEA3202B6EB020E75EB030E22BFA6
:10078000B61A754640EA5C005B084FEA3202B6EBE7
:10079000020E75EB030E22BFB61A754640EA9C00A6
:1007A0005B084FEA3202B6EB020E75EB030E22BF76
:1007B000B61A754640EADC0055EA060E18D04FEA34
:1007C000051545EA16754FEA06164FEAC30343EAD4
:1007D00052734FEAC2025FEA1C1CC0D111F4801FA1
:1007E0000BD141EA00014FF000004FF0004CB6E79A
:1007F00011F4801F04BF01430020B4F1FD0C88BF39
:10080000BCF5E06F3FF6AFAEB5EB030C04BFB6EB43
:10081000020C5FEA500C50F1000041EB045170BD36
:100820000EF0004E4EEA113114EB5C04C2BFD4EB63
:100830000C0541EA045170BD41F480114FF0000EE7
:10084000013C90E645EA060E8DE60CEA135594EA63
:100850000C0F08BF95EA0C0F3FF43BAF94EA0C0F66
:100860000AD150EA01347FF434AF95EA0C0F7FF4DB
:1008700025AF104619462CE795EA0C0F06D152EA2F
:1008800003353FF4FDAE1046194622E750EA410613
:1008900018BF52EA43067FF4C5AE50EA41047FF424
:1008A0000DAF52EA43057FF4EBAE12E74FEA410287
:1008B000B2F1E04324BFB3F5001CDCF1FE5C0DD9BE
:1008C00001F0004C4FEAC0024CEA5070B2F1004F08
:1008D00040EB830008BF20F00100704711F0804F0B
:1008E00021D113F13872BCBF01F00040704741F4D0
:1008F00080114FEA5252C2F11802C2F1200C10FAD4
:100900000CF320FA02F018BF40F001004FEAC123B7
:100910004FEAD32303FA0CFC40EA0C0023FA02F35B
:100920004FEA4303CCE77FEA625307D150EA013331
:100930001EBF4FF0FE4040F44000704701F0004001
:1009400040F0FE4040F40000704700BF80F00040DF
:1009500002E000BF81F0004142001FBF5FEA410397
:1009600092EA030F7FEA226C7FEA236C6AD04FEA97
:100970001262D2EB1363C1BFD218414048404140DC
:10098000B8BF5B42192B88BF704710F0004F40F48E
:10099000000020F07F4018BF404211F0004F41F4AA
:1009A000000121F07F4118BF494292EA030F3FD076
:1009B000A2F1010241FA03FC10EB0C00C3F1200389
:1009C00001FA03F100F0004302D5494260EB400018
:1009D000B0F5000F13D3B0F1807F06D340084FEA83
:1009E000310102F10102FE2A51D2B1F1004F40EB78
:1009F000C25008BF20F0010040EA030070474900E0
:100A000040EB0000013A28BFB0F5000FEDD2B0FA7C
:100A100080FCACF1080CB2EB0C0200FA0CF0AABF9F
:100A200000EBC25052421843BCBFD040184370473D
:100A300092F0000F81F4000106BF80F40000013243
:100A4000013BB5E74FEA41037FEA226C18BF7FEA1A
:100A5000236C21D092EA030F04D092F0000F08BF5C
:100A60000846704790EA010F1CBF0020704712F043
:100A70007F4F04D1400028BF40F00040704712F182
:100A800000723CBF00F50000704700F0004343F0E7
:100A9000FE4040F4000070477FEA226216BF08461D
:100AA0007FEA23630146420206BF5FEA412390EAE0
:100AB000010F40F4800070474FF0000304E000BFD6
:100AC00010F0004348BF40425FEA000C08BF704787
:100AD00043F0964301464FF000001CE050EA01024B
:100AE00008BF70474FF000030AE000BF50EA010260
:100AF00008BF704711F0004302D5404261EB41014D
:100B00005FEA010C02BF84460146002043F0B64371
:100B100008BFA3F18053A3F50003BCFA8CF2083A96
:100B2000A3EBC25310DB01FA02FC634400FA02FC9F
:100B3000C2F12002BCF1004F20FA02F243EB0200A6
:100B400008BF20F00100704702F1200201FA02FC08
:100B5000C2F1200250EA4C0021FA02F243EB0200FB
:100B600008BF20EADC7070474FF0FF0C1CEAD0523F
:100B70001EBF1CEAD15392EA0C0F93EA0C0F6FD000
:100B80001A4480EA010C400218BF5FEA41211ED0DE
:100B90004FF0006343EA501043EA5111A0FB0131CA
:100BA0000CF00040B1F5000F3EBF490041EAD3719F
:100BB0005B0040EA010062F17F02FD2A1DD8B3F11B
:100BC000004F40EBC25008BF20F00100704790F08A
:100BD000000F0CF0004C08BF49024CEA502040EADC
:100BE00051207F3AC2BFD2F1FF0340EAC2507047A2
:100BF00040F400004FF00003013A5DDC12F1190FE0
:100C0000DCBF00F000407047C2F10002410021FA51
:100C100002F1C2F1200200FA02FC5FEA310040F169
:100C2000000053EA4C0308BF20EADC70704792F0E2
:100C3000000F00F0004C02BF400010F4000F013A1A
:100C4000F9D040EA0C0093F0000F01F0004C02BF15
:100C5000490011F4000F013BF9D041EA0C018FE784
:100C60000CEAD15392EA0C0F18BF93EA0C0F0AD08A
:100C700030F0004C18BF31F0004CD8D180EA0100B0
:100C800000F00040704790F0000F17BF90F0004F49
:100C9000084691F0000F91F0004F14D092EA0C0F2B
:100CA00001D142020FD193EA0C0F03D14B0218BFBE
:100CB000084608D180EA010000F0004040F0FE4004
:100CC00040F40000704740F0FE4040F440007047A0
:100CD0004FF0FF0C1CEAD0521EBF1CEAD15392EA1F
:100CE0000C0F93EA0C0F69D0A2EB030280EA010C0F
:100CF00049024FEA402037D04FF0805343EA1111A8
:100D000043EA10130CF000408B4238BF5B0042F105
:100D10007D024FF4000C8B4224BF5B1A40EA0C00AA
:100D2000B3EB510F24BFA3EB510340EA5C00B3EBDC
:100D3000910F24BFA3EB910340EA9C00B3EBD10FCA
:100D400024BFA3EBD10340EADC001B0118BF5FEA1C
:100D50001C1CE0D1FD2A3FF650AF8B4240EBC25045
:100D600008BF20F0010070470CF0004C4CEA502006
:100D70007F32C2BFD2F1FF0340EAC250704740F455
:100D800000004FF00003013A37E792F0000F00F047
:100D9000004C02BF400010F4000F013AF9D040EAC5
:100DA0000C0093F0000F01F0004C02BF490011F459
:100DB000000F013BF9D041EA0C0195E70CEAD15351
:100DC00092EA0C0F08D142027FF47DAF93EA0C0F38
:100DD0007FF470AF084676E793EA0C0F04D14B021C
:100DE0003FF44CAF08466EE730F0004C18BF31F0CE
:100DF000004CCAD130F000427FF45CAF31F00043C8
:100E00007FF43CAF5FE700BF4FF0FF3C06E000BF60
:100E10004FF0010C02E000BF4FF0010C4DF804CD83
:100E20004FEA40024FEA41037FEA226C18BF7FEA93
:100E3000236C11D001B052EA530C18BF90EA010F95
:100E400058BFB2EB030088BFC81738BF6FEAE17024
:100E500018BF40F0010070477FEA226C02D15FEAC0
:100E6000402C05D17FEA236CE4D15FEA412CE1D02C
:100E70005DF8040B704700BF844608466146FFE7F3
:100E80000FB5FFF7C9FF002848BF10F1000F0FBDD5
:100E90004DF808EDFFF7F4FF0CBF012000205DF8CE
:100EA00008FB00BF4DF808EDFFF7EAFF34BF012053
:100EB00000205DF808FB00BF4DF808EDFFF7E0FFEC
:100EC00094BF012000205DF808FB00BF4DF808ED3D
:100ED000FFF7D2FF94BF012000205DF808FB00BFA0
:100EE0004DF808EDFFF7C8FF34BF012000205DF882
:100EF00008FB00BF4FEA4002B2F1FE4F0FD34FF0A4
:100F00009E03B3EB12620DD94FEA002343F0004376
:100F100010F0004F23FA02F018BF404270474FF024
:100F20000000704712F1610F01D1420205D110F0AB
:100F3000004008BF6FF0004070474FF0000070475E
:100F400010B5054C237833B9044B13B10448AFF303
:100F500000800123237010BD7C01002000000000F0
:100F6000985F000808B5034B1BB103490348AFF372
:100F7000008008BD0000000080010020985F00088C
:100F8000D0B5044601680B685B6A1BB203824269F4
:100F9000868893FBF6F00244626106FB10332382DD
:100FA0000A689BB253626069FFF78AFD0646B4F98E
:100FB0001000FFF785FD0746A088FFF781FD014679
:100FC0003846FFF785FE01463046FFF7C5FC01466F
:100FD000FFF7C2FCFFF700FA09A3D3E90023FFF7EC
:100FE00053FA06460F46E069FFF7F6F902460B464C
:100FF00030463946FFF772FBFFF758FCA060D0BDC2
:10100000182D4454FB21094038B504468568016A0F
:101010002846FFF79FFCA169FFF75AFEE0602562B2
:1010200038BD80687047C0687047000030B589B02F
:1010300000240494059406940794174B9A6942F08F
:1010400020029A619A6902F020020192019A9A693B
:1010500042F004029A619A6902F004020292029A32
:101060009A6942F008029A619B6903F008030393AE
:10107000039B0A4D22461821284600F095FD1823AF
:1010800004930123059306940223079304A9284699
:1010900000F07CFC09B030BD0010024000080140A7
:1010A00038B505460C460A460F4904F03EFF30B1FC
:1010B00022460E49284604F038FF50B138BD0022C0
:1010C0004FF4005100F1804000F5883000F06CFDD5
:1010D000F4E701224FF4005100F1804000F5883020
:1010E00000F062FDEAE700BFB05F0008B85F0008EB
:1010F00072B6FEE700B58FB000230A930B930C93F2
:101100000D9308930993019302930393049305931A
:101110000693079320484FF080420260032242600A
:10112000836040F2E732C26003618023836102F092
:1011300091FB30BB4FF480530A930AA9164802F082
:10114000E5FC00BB144802F0B1FBF0B900230893A2
:10115000099308A9104802F03BFEC0B9602301932F
:10116000002302930393059304220DEB02010A4826
:1011700002F052FC68B9084800F0ACFD0FB05DF811
:1011800004FBFFF7B5FFFFF7B3FFFFF7B1FFFFF772
:10119000AFFFFFF7ADFF00BF3C03002000B58DB0EF
:1011A0002422002103A804F0B8FE00230193029337
:1011B0001148124A0260436083604FF6FF72C260BA
:1011C000036143618361032303930123059309931F
:1011D00003A902F097FB50B900230193029301A9E0
:1011E000054802F0F5FD20B90DB05DF804FBFFF7EE
:1011F0007FFFFFF77DFF00BF84030020002C01402C
:1012000000B587B0002302930393049305930093E2
:1012100001931348134A026047224260836040F200
:10122000E732C2600361836102F014FB90B94FF4AE
:101230008053029302A90A4802F068FC60B90023B7
:10124000009301936946064802F0C2FD30B907B029
:101250005DF804FBFFF74CFFFFF74AFFFFF748FF7D
:10126000F40200200004004000B58FB000230A9370
:101270000B930C930D93089309930193029303939B
:1012800004930593069307931E481F4A026040F299
:101290001F324260836040F20772C2600361836163
:1012A00002F0D8FA20BB4FF480530A930AA91548DC
:1012B00002F02CFCF0B9134802F0F8FAE0B9002370
:1012C0000893099308A90F4802F082FDB0B9602382
:1012D0000193002202920392059201A9094802F0AB
:1012E0009BFB68B9074800F0F5FC0FB05DF804FB04
:1012F000FFF7FEFEFFF7FCFEFFF7FAFEFFF7F8FE32
:10130000FFF7F6FEAC0200200008004000B595B0E3
:10131000282200210DEB020004F0FFFD00230593BD
:1013200006930793089309930193029303930493FD
:1013300001220A924FF480330B930E9202221192F3
:1013400012934FF4E01313930AA801F033FDC0B9D0
:101350000F23059302210691002307934FF4806227
:101360000892099305A801F057FF60B91023019373
:101370000023049301A802F005F830B915B05DF818
:1013800004FBFFF7B5FEFFF7B3FEFFF7B1FE000069
:1013900080B586B000F05EFAFFF7B8FFFFF746FEB3
:1013A000FFF7A8FEFFF7FAFEFFF72AFFFFF75CFF43
:1013B00003F00CFD2B4C002600962B4B2B4A0121F1
:1013C000204600F02BF92A4F40F2CF7239462046D2
:1013D00000F040F9274BDFF8A08040F2E73204929A
:1013E00003961022029201930822009202224146A3
:1013F000204600F032F900250195204B00932B4642
:101400002A461F49204600F067F901951D4B0093BD
:101410002B461D4A1D49204600F066F93B686FF0D7
:1014200001021A613C21384602F06CFC042140465E
:1014300002F0FAFB164C3146204602F0F5FB154847
:1014400002F0D6F8204602F0D3F8134B196805488D
:1014500000F0B5F90E4B1A68104B1B881B33536311
:10146000F3E700BF9801002000006C4229F85F44B8
:1014700084030020000801403C0300206F12833ADF
:10148000000040406F12833B0080BB4400001643C5
:10149000AC020020F4020020A8020020000000207E
:1014A00000238361C36103628363436370472DE953
:1014B000F843044608461146FFF74CFA05462060FB
:1014C000666906F10041FFF70BFD28B13146284659
:1014D000FFF7E8FC002849D1256861682846FFF736
:1014E00043FB0746A061D4F81C80216B606BFFF7BB
:1014F00031FA2169FFF738FB0646D4F824904946B3
:101500002846FFF731FBA168FFF72EFB0146304666
:10151000FFF722FA01464046FFF71EFA8046E061D7
:10152000A16B2846FFF716FAE168FFF71DFB494655
:10153000FFF7CEFB0646206241463846FFF70CFA1D
:1015400001463046FFF708FA06462063E76A394647
:10155000FFF7A8FC30B9A76A39463046FFF7C0FC50
:1015600000B937466763A563BDE8F88300232360AD
:101570002046FFF795FFAFE7406B704738B504464C
:1015800001B30A4681EAE171A1EBE271438B994212
:1015900003DB038B8B42A8BF0B46E361002A1EDDF1
:1015A00001222189E06800F0FFFA0022218A6069A7
:1015B00000F0FAFA2379013B032B1FD8DFE803F090
:1015C0001A1F24290025C5612A460189C06800F038
:1015D000EBFA2A46218A606900F0E6FAEAE700227F
:1015E0002189E06800F0E0FA0122218A606900F0B8
:1015F000DBFADFE723681B68E2695A6338BD2368BA
:101600001B68E2699A63F9E723681B68E269DA6399
:10161000F4E723681B68E2691A64EFE738B504460B
:101620000D46104619469DF8103084F80951E161C5
:1016300063B1FF2384F8F830FFF74AFBC4F80C01CC
:101640001DB100F100432365E06438BD012384F837
:10165000F830F1E701608280704738B50446BDF884
:101660002050C0F8D81080F8DC20C0F8E430049B8B
:10167000C0F8E030059BC0F8EC30069BC0F8E830BD
:10168000BDF81C30A0F8F230A0F8F05090F8093105
:10169000012B0BD0022B14D03BB96842FFF710FA94
:1016A00020652846FFF708FAE06438BD6842FFF776
:1016B00007FAC4F88C002846FFF7FEF9C4F8880042
:1016C000F3E76842FFF7FCF9C4F8C8002846FFF7C3
:1016D000F3F9C4F8C400E8E78162C2620363009BC7
:1016E0008364019B43637047DDF800C041668266F6
:1016F000C366C0F884C0019B0367C0F818C0704778
:1017000070B50446FFF73CFC94F80A31012B07D072
:1017100004F12400FFF7C4FE0023C4F8FC3070BDC0
:1017200004F12405D4F8FC602046FFF77AFC024659
:1017300031462846FFF7BBFE94F8093153B92846D5
:10174000FFF71AFFFFF7D6FB014604F1D800FFF7B9
:1017500015FFE4E72846FFF70FFFC4F80001DEE7B6
:1017600070B50446FFF750FC04F16005D4F8006141
:101770002046FFF758FC024631462846FFF797FE01
:1017800094F80931012B09D0022B12D02BB928462D
:10179000FFF786FE0023C4F8003170BD2846FFF72E
:1017A000EBFEFFF7A7FB014604F1D800FFF7E6FECA
:1017B000F3E72846FFF7E0FEC4F80401EDE7F8B5CB
:1017C00090F80931E3B104460D46022380F80A314E
:1017D00090F9F800FFF774F92946FFF7C5F90546B7
:1017E000D4F80C7107F100463146FFF75BFB28B9CE
:1017F00039462846FFF774FB18B13E46C4F800612D
:10180000F8BD2E46FAE7000010B504460E4B1A78D4
:101810004FF47A73B3FBF2F30C4A1068B0FBF3F0A9
:1018200000F0A0F868B90F2C01D901200AE00022CD
:1018300021464FF0FF3000F077F8054B1C60002088
:1018400000E0012010BD00BF0200002008000020C1
:101850000400002008B5074A136843F01003136022
:10186000032000F04FF80F20FFF7CEFF00F0A2F9A1
:10187000002008BD00200240034A1168034B1B787A
:101880000B441360704700BFCC030020020000200F
:10189000014B1868704700BFCC030020002808DB0C
:1018A0000901C9B200F1604000F5614080F8001301
:1018B000704700F00F000901C9B2014B195470477D
:1018C00014ED00E000B500F00700C0F1070CBCF11A
:1018D000040F28BF4FF0040C031D062B0FD9C31EA5
:1018E0004FF0FF3E0EFA0CF021EA000199400EFA8B
:1018F00003FE22EA0E0241EA02005DF804FB002327
:10190000EEE70000074AD36823F4E0631B041B0CD6
:10191000000200F4E060034343F0BF6343F400338C
:10192000D360704700ED00E010B50446054BD86861
:10193000C0F30220FFF7C6FF01462046FFF7AEFFC7
:1019400010BD00BF00ED00E0002807DB00F01F0223
:10195000400901239340024A42F82030704700BFFB
:1019600000E100E00138B0F1807F0BD24FF0E023BE
:101970005861054AF02182F823100020986107225F
:101980001A6170470120704700ED00E070B582B029
:101990000024A446A1E07E4DAB4214D00CD8A5F59E
:1019A0008015AB420FD005F57025AB420BD0A5F5E5
:1019B0008015AB4210D106E0764DAB4203D005F561
:1019C0008035AB4208D18B68002B50D0012B49D019
:1019D0004261082400E0CC68BEF1FF0F49D80646FA
:1019E0004FEA8C0233680F25954023EA050304FA79
:1019F00002F2134333604B6813F0805F6BD0664B89
:101A00009A6942F001029A619B6903F00103019314
:101A1000019B4FEA9C02951C604B53F825600CF02B
:101A20000305AD000F23AB4026EA03065C4B98424A
:101A300026D003F58063984200F08C8003F5806324
:101A4000984200F0898003F58063984216D0042301
:101A500017E0CC680434BFE7CC680834BCE7CC6836
:101A60000C34B9E702610824B6E70024B4E7042483
:101A7000B2E7061DACF108029200B3E7032300E0D1
:101A80000023AB4033430232444D45F822304B68CB
:101A900013F4801F62D0434A936843EA0E039360B5
:101AA0004B6813F4001F5FD03E4AD36843EA0E032D
:101AB000D3604B6813F4003F5CD03A4A536843EA62
:101AC0000E0353604B6813F4803F59D0354A1368B6
:101AD00043EA0E0313600CF1010C0B6833FA0CF2AD
:101AE00054D0012202FA0CF203EA020E32EA030396
:101AF000F1D14B68122B3FF64EAF122B3FF66CAF75
:101B000001A555F823F000BFC7190008D719000830
:101B1000591A00086B1A0008D9190008D9190008C9
:101B2000D9190008D9190008D9190008D9190008CD
:101B3000D9190008D9190008D9190008D9190008BD
:101B4000D9190008D9190008D9190008531A000832
:101B50005F1A0008012394E7022392E7114A936871
:101B600023EA0E0393609BE70E4AD36823EA0E0331
:101B7000D3609EE70B4A536823EA0E035360A1E744
:101B8000084A136823EA0E031360A4E702B070BD8D
:101B9000000022100000311000100240000001403F
:101BA00000080140000401400AB1016170470904C6
:101BB0000161704782B00E4B9A6942F001029A614E
:101BC0009A6902F001020092009ADA6942F08052AA
:101BD000DA61DB6903F080530193019B054A536886
:101BE00023F0E06343F00073536002B0704700BF1E
:101BF000001002400000014000B587B000230293AE
:101C00000393049305930268104B9A4202D007B0E5
:101C10005DF804FB03F564439A6942F400629A613B
:101C20009A6902F400620092009A9A6942F00402F2
:101C30009A619B6903F004030193019B4FF4407385
:101C4000029302A90248FFF7A1FEE0E7002C014041
:101C50000008014000B585B00368B3F1804F08D09B
:101C6000194A934211D0194A934221D005B05DF828
:101C700004FB03F50433DA6942F00102DA61DB693F
:101C800003F001030193019BF0E7114BDA6942F085
:101C90000202DA61DB6903F002030293029B002275
:101CA00002211D20FFF740FE1D20FFF74DFEDDE75E
:101CB000074BDA6942F00402DA61DB6903F00403DE
:101CC0000393039BD2E700BF0004004000080040DC
:101CD0000010024000B587B00023029303930493E1
:101CE00005930368B3F1804F05D0174A934216D08D
:101CF00007B05DF804FB03F504339A6942F004026F
:101D00009A619B6903F004030093009B02230293F2
:101D10000393059302A90D48FFF738FEE8E70C4B43
:101D20009A6942F008029A619B6903F008030193E3
:101D3000019B4023029302230393059302A90548C4
:101D4000FFF724FED4E700BF000800400008014070
:101D500000100240000C014038B512F4804F44D00E
:101D60000468B4F850309BB291F800C003EBCC0388
:101D7000023304EB4304B4F80044C4F309048B6950
:101D8000A34228D31B1B8B618B697BB9056835F88F
:101D90002C309BB223F4804323F0700383F4005370
:101DA00043F4004343F0800325F82C3012F0400F39
:101DB0000ED002680D7832F825309BB223F4E04350
:101DC00023F0700343F4004343F0C00322F82530AE
:101DD00024B9204638BD00238B61D5E723460A8904
:101DE0004969006802F0D9FFF3E70468B4F850309D
:101DF0009BB291F800C003EBCC03063304EB430421
:101E0000B4F80044C4F309048B69A3422FD31B1B0D
:101E10008B618B697BB9056835F82C309BB223F454
:101E2000804323F0700383F4005343F4004343F0F2
:101E3000800325F82C3012F0400F0FD1026891F882
:101E400000C032F82C309BB223F4E04323F070033F
:101E500043F4004343F0C00322F82C30002CB8D0E8
:101E600023464A894969006802F097FFB1E70023D9
:101E70008B61CEE770B586B0002800F08180044603
:101E800090F8A932EBB1032384F8A932206802F05C
:101E900017F8254655F8106BEC460FCDACE80F004F
:101EA0002B68CCF80030231D0ECB304601F0F8FF34
:101EB000054658B1022384F8A9320125284606B008
:101EC00070BD80F8A83203F07FF9DCE700212068BC
:101ED00002F000F82B4616E05A1C02EB820104EBDC
:101EE000C1010120487002EB820104F8313004EB9B
:101EF000C1000021C17003EB830004EBC0008163CB
:101F0000C1630164D3B261688B42E5D316E005EB8F
:101F1000850304EBC303002283F8692183F8685129
:101F200083F86B21C3F87821C3F87C2105EB850386
:101F300004EBC303C3F880210135EDB2A942E6D812
:101F4000254655F8106BEC460FCDACE80F002B681A
:101F5000CCF80030231D0ECB304601F0BDFF054606
:101F600020B1022384F8A9320125A7E7002384F8D1
:101F70002430012384F8A932206802F00CFB9DE78D
:101F800001259BE738B590F8A832012B11D0044603
:101F9000012580F8A852006801F089FF29462046F3
:101FA00003F027FA206802F0F4FA002084F8A8026F
:101FB00038BD0220FCE770B505460C46164612F007
:101FC000400F00F00E810268B2F850309BB20978E1
:101FD00003EBC103023302EB4302B2F80024C2F365
:101FE0000902A36993424ED99B1AA361A369002BEE
:101FF00066D16378002B49D12B68B3F8502092B298
:10200000134403EB0113B3F80424C2F30902A3F849
:102010000424B3F804246FEA42426FEA524292B2B7
:10202000A3F804242B686278002A3CD1B3F850202E
:1020300092B21344227803EB0213B3F80C24C2F3D8
:102040000902A3F80C24B3F80C246FEA42426FEAA9
:10205000524292B2A3F80C242178284603F0E8F803
:1020600016F4804F41D02A68217832F821309BB293
:1020700023F4E04323F0700343F4404343F0800330
:1020800022F8213031E00023A361AFE7012BC9D151
:102090002B68B3F8502092B2134403EB01130022D3
:1020A000A3F80424BEE7012AD6D1B3F8502092B297
:1020B0001344227803EB02130022A3F80C24CBE78D
:1020C00016F4804F0DD0286830F821309BB223F4ED
:1020D000E04323F0700343F4404343F0800320F8CF
:1020E000213094F82430012B12D02A68217832F85C
:1020F00021309BB223F4E04323F0400383F030030C
:1021000043F4004343F0800322F82130002070BDE7
:10211000636913446361E3691344E361216A2369DA
:10212000994224D3C91A21626278002A44D12A68CC
:10213000B2F8501089B20A44217802EB0112B2F8C9
:102140000414C1F30901A2F804143E2B1BD9580949
:1021500013F01F0F00D10138B2F8041489B28002C5
:1021600080B2014341F40041A2F8041426E021B9F1
:10217000002384F824301346D6E7002384F8243063
:1021800023620B46D0E74BB9B2F804146FEA414121
:102190006FEA514189B2A2F804140FE0590813F014
:1021A000010F00D00131B2F8040480B2890289B273
:1021B0000143A2F8041401E0012A06D09BB222894F
:1021C0006169286802F0EFF98FE72A68B2F85010C9
:1021D00089B20A44217802EB011299B2A2F80414E0
:1021E000ECE70268B2F850309BB2097803EBC10308
:1021F000063302EB4302B2F80024C2F30902A369DA
:1022000093424FD39B1AA361A369002B67D16378D4
:10221000002B4AD12B68B3F8502092B2134403EB41
:102220000113B3F80424C2F30902A3F80424B3F899
:1022300004246FEA42426FEA524292B2A3F80424A5
:102240002B686278002A3DD1B3F8502092B2134433
:10225000227803EB0213B3F80C24C2F30902A3F8AB
:102260000C24B3F80C246FEA42426FEA524292B255
:10227000A3F80C242178284602F0DAFF16F4804FE8
:102280007FF433AF2A68217832F821309BB223F4EF
:10229000E04323F0700343F4404343F0800322F80B
:1022A000213022E70023A361AEE7012BC8D12B68C0
:1022B000B3F8502092B2134403EB01130022A3F8A9
:1022C0000424BDE7012AD5D1B3F8502092B21344BB
:1022D000227803EB02130022A3F80C24CAE716F4B9
:1022E000804F0DD1286830F821309BB223F4E043B1
:1022F00023F0700343F4404343F0800320F821307F
:1023000094F82430012B7FF4F0AE636913446361C9
:10231000E3691344E361216A2369994224D3C91A0A
:1023200021622A686178002943D1B2F8501089B23D
:102330000A44217802EB0112B2F80C14C1F309012E
:10234000A2F80C143E2B1BD9580913F01F0F00D113
:102350000138B2F80C1489B2800280B2014341F412
:102360000041A2F80C1426E021B9002384F824309F
:102370001346D6E70023236284F824300B46D0E7C7
:102380004BB9B2F80C146FEA41416FEA514189B27E
:10239000A2F80C140FE0590813F0010F00D001311E
:1023A000B2F80C0480B2890289B20143A2F80C147D
:1023B00001E0012906D09BB262896169286802F0B8
:1023C000F2F892E6B2F8501089B20A44217802EB92
:1023D000011299B2A2F80C14EDE72DE9F04105467F
:1023E0002868B0F8443013F4004F00F09282B0F83F
:1023F0004440A3B214F00F0440F0E28013F0100F39
:102400006BD003889AB213F4006F40F09D8012F4F1
:10241000004FE5D0038823F070031B051B0D43F02C
:10242000800303802868B0F850309BB295F868218B
:1024300003EBC203063300EB4303B3F80034C3F3EA
:102440000903C5F884318BB1D5F87C1171B1B5F8A9
:102450006E2102F0A2FCD5F87C31D5F8842113441A
:10246000C5F87C310021284602F0D6FE2A68138880
:1024700099B213F4006FB3D101F44051B1F5405F4C
:10248000AED0B2F850309BB21A44B2F80C34C3F359
:102490000903A2F80C34D5F878313E2B77D95909C5
:1024A00013F01F0F00D10139B2F80C349BB289022E
:1024B00089B20B4343F40043A2F80C342A68138812
:1024C0009BB223F4804323F0700383F4405343F41E
:1024D000004343F08003138082E703889BB223F418
:1024E000E14323F070036FEA43436FEA53439BB227
:1024F00003802A68B2F850309BB295F8281003EB9D
:10250000C103023302EB4302B2F80034C3F3090300
:102510006B64EA6B1A44EA630021284602F088FEE5
:1025200095F82430002B3FF45BAF2B6C002B7FF42D
:1025300057AF95F824302A6843F08003A2F84C3056
:10254000002385F824304BE7B0F850309BB295F863
:10255000682103EBC203063300EB4303B3F80034F6
:10256000C3F30903C5F88431B5F86E2105F52C7164
:1025700002F013FC2A68138823F070031B051B0D5F
:1025800043F080031380284602F03EFE28E74BB953
:10259000B2F80C346FEA43436FEA53439BB2A2F89C
:1025A0000C348BE7590813F0010F00D00131B2F859
:1025B0000C3498B28B029BB20343A2F80C347DE733
:1025C00030F824309EB213F4004F4CD116F0800F37
:1025D0003FF406AF621C02EB820105EBC1012868E3
:1025E00030F824309BB223F4E14323F070036FEA08
:1025F00043436FEA53439BB220F82430CB78012B3E
:1026000000F0F28016F4807F40F07E812868B0F8F8
:1026100050309BB2621C02EB820215F8326003EB71
:10262000C603023300EB4303B3F80034C3F30903DA
:1026300004EB840205EBC202126C9A4240F24C8118
:1026400004EB840705EBC707D21A3A6404EB840253
:1026500005EBC202126C002A40F045813146284643
:1026600002F0E6FDBCE630F8243023F070031B05D1
:102670001B0D43F0800320F8243004EB8401C900D3
:1026800001F5B47105EB010804EB840305EBC3030A
:1026900093F87431002B42D12868B0F850309BB2C7
:1026A00004EB840205EBC20292F8682103EBC2033B
:1026B000063300EB4303B3F80074C7F3090717BBF5
:1026C00004EB840305EBC303D3F884213A44C3F835
:1026D0008421D3F87C213A44C3F87C21D3F880319B
:1026E0003BB104EB840305EBC303D3F878319F427D
:1026F00075D204EB840305EBC30393F868112846F5
:1027000002F08AFD62E704EB840105EBC1013B4660
:10271000B1F86E21D1F87C1102F03FFBD0E704EB59
:10272000840305EBC30393F86B31022B35D0296882
:1027300004EB840205EBC20292F8680131F8203004
:102740009BB223F4E04323F0700343F4004343F0CF
:10275000C00321F82030286892F8682130F8223030
:1027600013F4804F20D0B0F850309BB203EBC2037B
:10277000023300EB4303B3F80074C7F30907002FDB
:102780009ED004EB840105EBC1013B46B1F87021FA
:10279000D1F87C1102F001FB92E73246414628460F
:1027A000FFF7DAFA07468BE7B0F850309BB203EB3D
:1027B000C203063300EB4303B3F80074C7F3090701
:1027C000002F3FF47DAF04EB840105EBC1013B46D4
:1027D000B1F87221D1F87C1102F0DFFA70E74146BE
:1027E000286801F0F3FEF1E604EB840305EBC30374
:1027F00000221A6493F83430FBB116F0400F37D042
:102800004B781BBB2B68B3F8502092B21344621C68
:1028100002EB820215F8322003EB0213B3F8042412
:10282000C2F30902A3F80424B3F804246FEA424275
:102830006FEA524292B2A3F80424013404EB8404F8
:1028400015F83410284602F0F3FCC9E5012BF4D149
:102850002B68B3F8502092B21344621C02EB820240
:1028600015F8322003EB02130022A3F80424E4E756
:102870002A68631C03EB830305EBC3035B78D3B9BE
:10288000B2F850309BB21344621C02EB820215F87E
:10289000322003EB0213B3F80C24C2F30902A3F8AD
:1028A0000C24B3F80C246FEA42426FEA524292B20F
:1028B000A3F80C24C1E7012BBFD1B2F850309BB272
:1028C0001344621C02EB820215F8322003EB021360
:1028D0000022A3F80C24B0E704EB840205EBC2024B
:1028E00000271764B2E604EB840205EBC202D66B44
:1028F0001E44D663526C04EB840405EBC4041344F9
:10290000636401F063FE6BE532462846FFF753FB34
:1029100066E50020BDE8F08190F8A832012B0DD0CB
:1029200010B50446012380F8A83280F8241000680E
:1029300001F029FE002084F8A80210BD0220704793
:1029400010B584B00446006801F027FE10F4004F73
:1029500020D110F4806F21D110F4804F2FD110F4CA
:10296000005F37D110F4805F3ED110F4006F40F06B
:10297000878010F4007F40F0AE8010F4807F27D075
:102980002268B2F844309BB223F480739BB2A2F861
:1029900044301DE02046FFF720FD19E02268B2F820
:1029A00044309BB223F480639BB2A2F844302046AB
:1029B00002F04FFC00212046FFF7AEFF08E022683E
:1029C000B2F844309BB223F480439BB2A2F8443067
:1029D00004B010BD2268B2F844309BB223F4005317
:1029E0009BB2A2F84430F3E72268B2F840309BB2C1
:1029F00023F004039BB2A2F840302268B2F84030C2
:102A00009BB223F008039BB2A2F84030204602F0AC
:102A100043FC2268B2F844309BB223F480539BB24B
:102A2000A2F84430D4E7226832F8231004AA02EB5B
:102A3000430222F8101C0133DBB2072BF3D92268C2
:102A4000B2F840309BB243F00103A2F84030226854
:102A5000B2F840309BB223F001039BB2A2F84030A1
:102A60002368B3F8442012F4806FF9D0B3F84420FF
:102A700092B222F4806292B2A3F8442000230BE0C9
:102A80000023DAE7226804A901EB430131F8101CA6
:102A900022F823100133DBB2072BF3D92268B2F8F6
:102AA00040309BB243F00803A2F840302268B2F8ED
:102AB00044309BB223F400639BB2A2F844302268F6
:102AC000B2F840309BB243F00403A2F840302046F5
:102AD00002F0D2FB7CE72268B2F844309BB223F4C8
:102AE00000739BB2A2F84430204602F0ACFB6FE7C3
:102AF00010B50446084611F0800F25D101F0070CEF
:102B00000CEB8C01C90001F5B47E04EB0E010CEB5B
:102B10008C0C04EBCC0C4FF0000E8CF869E100F04B
:102B2000070008700A61CB70022B1AD094F8A83203
:102B3000012B19D0012384F8A832206801F0DDF9B7
:102B4000002084F8A80210BD01F0070C0CF1010C64
:102B50000CEB8C0104EBC1014FF0010E81F801E098
:102B6000DDE700230B71E1E70220ECE710B5044636
:102B70000B4611F0800F1FD101F0070202EB82011A
:102B8000C90001F5B471014402EB820200EBC202FC
:102B9000002082F8690103F007030B7094F8A83253
:102BA000012B13D0012384F8A832206801F08AFB9E
:102BB000002084F8A80210BD01F00702013202EBE8
:102BC000820100EBC10101204870E4E70220F2E736
:102BD00010B501F0070C0CEB8C01C90001F5B471C4
:102BE0000CEB8C0E00EBCE0ECEF87C21CEF88031B3
:102BF0000024CEF884418EF869418EF868C1014402
:102C0000006801F0E3FC204610BD01F0070101EB74
:102C1000810100EBC100D0F88401704738B501F0A4
:102C2000070404F1010C0CEB8C0104EB840E00EBA7
:102C3000CE0ECEF83C20CEF8403001228EF84C204B
:102C4000CEF848300025CEF8445000EBC1035A704E
:102C500000F831401946006801F0B8FC284638BD3C
:102C600038B501F007054268954231D804460B4655
:102C700011F0800F1ED101EB8101C90001F5B47183
:102C8000014403EB830300EBC303002283F86921B3
:102C900001238B700D7094F8A832012B1AD00123F8
:102CA00084F8A832206801F0F8FB5DB1002084F8B8
:102CB000A80238BD6B1C03EB830100EBC1010122AC
:102CC0004A70E5E704F52C71206801F06AFCEDE735
:102CD0000120EEE70220ECE70B4601F00F0142680D
:102CE000914230D810B5044613F0800F21D103F083
:102CF000070202EB8201C90001F5B471014402EB45
:102D0000820200EBC202002082F8690100228A7070
:102D100003F007030B7094F8A832012B15D00123A0
:102D200084F8A832206801F0DDFB002084F8A802B6
:102D300010BD03F00702013202EB820100EBC1017A
:102D400001204870E2E7012070470220F0E711F00F
:102D5000800F0BD001F00701013101EB810100EB85
:102D6000C10052B90273C3800020704701EB81019A
:102D7000C90001F5B4710844F3E70122027303812D
:102D80001B0C4381F0E7000082B0084B1B68084A27
:102D9000A2FB03235B0A00FB03F3019300BF019B2B
:102DA0005A1E0192002BF9D102B070470800002092
:102DB000D34D6210002800F0F18170B582B0044656
:102DC000036813F0010F2CD0994B5B6803F00C03E0
:102DD000042B1DD0964B5B6803F00C03082B12D01C
:102DE0006368B3F5803F41D0002B55D103F1804398
:102DF00003F504331A6822F480321A601A6822F448
:102E000080221A6037E08A4B5B6813F4803FE7D07A
:102E1000874B1B6813F4003F03D06368002B00F05E
:102E2000BF81236813F0020F75D0814B5B6813F0EC
:102E30000C0F5FD07E4B5B6803F00C03082B54D063
:102E40002369002B00F08A807A4B01221A60FEF77A
:102E50001FFD0546764B1B6813F0020F75D1FEF778
:102E600017FD401B0228F5D903209EE1704A136824
:102E700043F480331360636843B3FEF709FD0546EE
:102E80006B4B1B6813F4003FCBD1FEF701FD401BD9
:102E90006428F5D9032088E1B3F5A02F09D0644B4D
:102EA0001A6822F480321A601A6822F480221A60AA
:102EB000E1E703F18043A3F53C331A6842F4802232
:102EC0001A601A6842F480321A60D4E7FEF7E0FC18
:102ED0000546574B1B6813F4003FA2D0FEF7D8FC01
:102EE000401B6428F5D903205FE1514B5B6813F464
:102EF000803FA5D14E4B1B6813F0020F03D023690E
:102F0000012B40F04F814A4A136823F0F8036169AE
:102F100043EAC1031360236813F0080F33D0A36999
:102F2000002B5CD0434B0122C3F88024FEF7B0FC99
:102F300005463F4B5B6A13F0020F21D1FEF7A8FC58
:102F4000401B0228F5D903202FE1394A136823F0EA
:102F5000F803616943EAC1031360DCE7354B0022E3
:102F60001A60FEF795FC0546314B1B6813F0020F03
:102F7000D1D0FEF78DFC401B0228F5D9032014E1C7
:102F80000120FFF701FF236813F0040F00F0968083
:102F9000274BDB6913F0805F34D1254BDA6942F0AF
:102FA0008052DA61DB6903F080530193019B0125B4
:102FB000214B1B6813F4807F26D0E368012B3DD0A2
:102FC000002B53D103F1804303F504331A6A22F036
:102FD00001021A621A6A22F004021A6233E0154BE7
:102FE0000022C3F88024FEF753FC0546104B5B6AB1
:102FF00013F0020FC7D0FEF74BFC401B0228F5D997
:103000000320D2E00025D3E70B4A136843F4807312
:103010001360FEF73DFC0646074B1B6813F4807FE8
:10302000CBD1FEF735FC801B6428F5D90320BCE02A
:103030000010024000004242007000405F4A136AE4
:1030400043F001031362E36833B3FEF721FC064645
:103050005A4B1B6A13F0020F2FD1FEF719FC801B8D
:1030600041F288339842F3D903209EE0052B09D022
:10307000524B1A6A22F001021A621A6A22F0040202
:103080001A62E0E74D4B1A6A42F004021A621A6AA9
:1030900042F001021A62D6E7FEF7FAFB0646474BFA
:1030A0001B6A13F0020F08D0FEF7F2FB801B41F2FF
:1030B00088339842F3D9032077E0E5B9E369002B20
:1030C00072D03E4A526802F00C02082A56D0022BF7
:1030D00017D03B4B00221A66FEF7DAFB0446374B4B
:1030E0001B6813F0007F47D0FEF7D2FB001B0228BD
:1030F000F5D9032059E0314AD36923F08053D361D5
:10310000DCE72F4B00221A66FEF7C2FB05462B4B6D
:103110001B6813F0007F06D0FEF7BAFB401B0228A5
:10312000F5D9032041E0236AB3F5803F1AD0234943
:103130004B6823F47413226A606A024313434B60A2
:103140001F4B01221A66FEF7A3FB04461B4B1B68AC
:1031500013F0007F0ED1FEF79BFB001B0228F5D970
:10316000032022E0154A536823F40033A1680B437F
:103170005360DCE7002018E0002016E0012B16D099
:103180000E4B5B6803F48031226A914211D103F443
:103190007013626A93420ED1002006E0012070474E
:1031A000012002E0012000E0002002B070BD0120FB
:1031B000FBE70120F9E70120F7E700BF001002401C
:1031C000000042420F4B5B6803F00C02082A01D05A
:1031D0000D487047C3F383420C49885C13F4803F69
:1031E0000BD0084B5B68C3F34043094AD35C064AE3
:1031F00002FB00F0B0FBF3F07047064B03FB00F05E
:10320000704700BF0010024000127A0008600008FA
:103210000460000800093D00002800F0A08070B59F
:103220000D460446524B1B6803F007038B420BD23A
:103230004F4A136823F007030B431360136803F02E
:1032400007038B4240F08D80236813F0020F17D0E4
:1032500013F0040F04D0474A536843F4E06353600B
:10326000236813F0080F04D0424A536843F46053B4
:103270005360404A536823F0F003A1680B43536046
:10328000236813F0010F31D06368012B20D0022B8B
:1032900025D0384A126812F0020F64D035494A68C6
:1032A00022F0030213434B60FEF7F2FA0646314B5D
:1032B0005B6803F00C036268B3EB820F16D0FEF775
:1032C000E7FA801B41F288339842F0D9032045E0A9
:1032D000284A126812F4003FE0D101203EE0254A5E
:1032E000126812F0007FD9D1012037E0204B1B6813
:1032F00003F00703AB420AD91D4A136823F0070302
:103300002B431360136803F00703AB422DD12368EE
:1033100013F0040F06D0174A536823F4E063E16802
:103320000B435360236813F0080F07D0114A53680A
:1033300023F46053216943EAC1035360FFF742FF5E
:103340000C4B5B68C3F303130B4AD35CD8400B4BA5
:1033500018600B4B1868FEF757FA002070BD01206B
:1033600070470120FAE70120F8E70120F6E700BFE7
:1033700000200240001002401860000808000020F1
:103380000400002070B582B00446036813F0010FFA
:1033900036D03F4BDB6913F0805F49D13C4BDA6993
:1033A00042F08052DA61DB6903F080530193019BA4
:1033B0000125384B1B6813F4807F3BD0344B1B6ACC
:1033C00013F4407313D0626802F440729A420ED034
:1033D0002F4A136A23F440702F490126C1F8406434
:1033E0000026C1F84064106213F0010F36D1284A5C
:1033F000136A23F4407361680B431362002D3ED1BE
:10340000236813F0020F06D0214A536823F4404387
:10341000A1680B435360236813F0100F34D01C4A8B
:10342000536823F48003E1680B43536000202CE0D1
:103430000025BEE7174A136843F480731360FEF754
:1034400027FA0646134B1B6813F4807FB6D1FEF7AC
:103450001FFA801B6428F5D9032016E0FEF718FA3E
:1034600006460B4B1B6A13F0020FC0D1FEF710FA91
:10347000801B41F288339842F3D9032005E0D369D9
:1034800023F08053D361BBE7002002B070BD00BFC2
:1034900000100240007000400000424230B4026A56
:1034A000036A23F0010303624568836923F0730311
:1034B0000C681C4322F002028B6813430B4A9042B3
:1034C00006D0456084614A684263036230BC70473D
:1034D00023F00803CA681A4322F0040325F4407558
:1034E0004A692A438D691543EBE700BF002C014070
:1034F00030B4036A026A22F4807202624468C269CC
:1035000022F073020D68154323F400738A6843EABE
:1035100002230D4A904206D04460C5614A68C263E6
:10352000036230BC704723F40063CA6843EA022395
:1035300023F4806324F440544A6944EA02148A69FB
:1035400044EA0214E8E700BF002C014030B4036AEB
:10355000026A22F4805202624468C26922F4E6429E
:103560000D6842EA052223F400538D6843EA0533CF
:10357000074DA84206D04460C2614A6802640362F3
:1035800030BC704724F480444D6944EA8514F2E766
:10359000002C014010B4036A046A24F001040462A0
:1035A000846924F0F00C4CEA021223F00A030B4366
:1035B0008261036210BC704710B4036A046A24F08D
:1035C00010040462846924F4704C4CEA023223F043
:1035D000A00343EA01138261036210BC7047836851
:1035E00023F070030B4343F0070383607047000030
:1035F00090F83D30DBB2012B27D1022380F83D301B
:103600000268D36843F00103D3600368114A934210
:1036100010D0B3F1804F0DD0A2F59432934209D06F
:1036200002F58062934205D01A6842F001021A60E6
:10363000002070479A6802F00702062A07D01A682D
:1036400042F001021A6000207047012070470020FC
:10365000704700BF002C01407047704770477047AB
:103660007047704710B5044603681A6912F0020FDC
:1036700011D0DA6812F0020F0DD06FF002021A6159
:103680000123037703689B6913F0030F70D0FFF7E2
:10369000E6FF0023237723681A6912F0040F12D083
:1036A000DA6812F0040F0ED06FF004021A610223E0
:1036B000237723689B6913F4407F5FD02046FFF790
:1036C000CEFF0023237723681A6912F0080F12D067
:1036D000DA6812F0080F0ED06FF008021A610423A6
:1036E00023772368DB6913F0030F4ED02046FFF7E2
:1036F000B6FF0023237723681A6912F0100F12D047
:10370000DA6812F0100F0ED06FF010021A61082361
:1037100023772368DB6913F4407F3DD02046FFF711
:103720009EFF0023237723681A6912F0010F03D04C
:10373000DA6812F0010F36D123681A6912F0800F8F
:1037400003D0DA6812F0800F34D123681A6912F0BE
:10375000400F03D0DA6812F0400F32D123681A69A3
:1037600012F0200F03D0DA6812F0200F30D110BD14
:10377000FFF774FF2046FFF773FF8AE72046FFF745
:103780006DFF2046FFF76CFF9BE72046FFF766FFC3
:103790002046FFF765FFACE72046FFF75FFF2046B6
:1037A000FFF75EFFBDE76FF001021A612046FFF7E9
:1037B00054FFC1E76FF080021A61204600F03FFB22
:1037C000C3E76FF040021A612046FFF74AFFC5E7E2
:1037D0006FF020021A61204600F030FBC7E70000BE
:1037E00003681B4A90420AD0B0F1804F07D0A2F57F
:1037F0009432904203D002F58062904203D123F0CC
:1038000070034A681343124A90420AD0B0F1804FC5
:1038100007D0A2F59432904203D002F58062904224
:1038200003D123F44073CA68134323F080034A6929
:10383000134303608B68C3620B688362044B984236
:1038400002D00123436170470B690363F9E700BFAE
:10385000002C014040B310B5044690F83D30F3B160
:10386000022384F83D30214651F8040BFFF7B8FFDE
:10387000012384F8463084F83E3084F83F3084F8E1
:10388000403084F8413084F8423084F8433084F882
:10389000443084F8453084F83D30002010BD80F875
:1038A0003C30FEF7D7F9DBE70120704740B310B595
:1038B000044690F83D30F3B1022384F83D302146B0
:1038C00051F8040BFFF78CFF012384F8463084F88D
:1038D0003E3084F83F3084F8403084F8413084F83A
:1038E000423084F8433084F8443084F8453084F81A
:1038F0003D30002010BD80F83C30FFF7ADFEDBE727
:1039000001207047002856D070B50D46044690F847
:103910003D30002B4AD0022384F83D302268936862
:1039200023F4804323F007039360214651F8040BEE
:10393000FFF756FF21688B688A690E6A286818436A
:1039400022F4407222F00302AB68D5F818C043EAB3
:103950000C23134323F47C4323F0FC03EA68D5F8DB
:103960001CC042EA0C221A432B6A1B03D5F810C074
:1039700043EA0C13134326F022066A686D6942EA93
:1039800005123243886021688B6123681A62012323
:1039900084F8463084F83E3084F83F3084F8423072
:1039A00084F8433084F83D30002070BD80F83C300E
:1039B000FEF722F9AFE701207047000030B4036A38
:1039C000026A22F0100202624468826922F4E6422E
:1039D0000D6842EA052223F020038D6843EA0513AF
:1039E0000C4DA84206D0446082614A68826303623B
:1039F00030BC704723F08003CD6843EA051323F001
:103A0000400324F440644D6944EA85048D6944EA26
:103A10008504E8E7002C014038B590F83C30012BD4
:103A200066D004460D46012380F83C300C2A5AD853
:103A3000DFE802F0075959591B595959305959595A
:103A400044000068FFF72AFD2268936943F00803E9
:103A500093612268936923F0040393612268936958
:103A600029690B43936100203EE00068FFF7A6FF41
:103A70002268936943F4006393612268936923F495
:103A80008063936122689369296943EA0123936102
:103A9000002029E00068FFF72BFD2268D36943F07E
:103AA0000803D3612268D36923F00403D361226839
:103AB000D36929690B43D361002015E00068FFF743
:103AC00045FD2268D36943F40063D3612268D3695A
:103AD00023F48063D3612268D369296943EA01230F
:103AE000D361002000E00120002384F83C3038BD81
:103AF0000220FCE710B4846824F47F4C42EA0322DD
:103B00000A4342EA0C02826010BC704790F83C30D5
:103B1000012B78D010B50446012380F83C300223F5
:103B200080F83D300268936823F47F4323F07703E5
:103B300093600B68602B4CD023D8402B54D011D805
:103B4000202B03D00AD80BB1102B05D119462068C1
:103B5000FFF745FD002028E0012026E0302BF5D0BE
:103B6000012022E0502B0AD1CA6849680068FFF79B
:103B700011FD50212068FFF732FD002015E00120E3
:103B800013E0B3F5805F3AD0B3F5005F14D0702B2B
:103B900037D1CB684A6889680068FFF7ABFF2268B5
:103BA000936843F0770393600020012384F83D304D
:103BB000002384F83C3010BDCB684A6889680068EF
:103BC000FFF798FF2268936843F4804393600020D6
:103BD000EBE7CA6849680068FFF7EEFC60212068DF
:103BE000FFF7FDFC0020E0E7CA6849680068FFF7BE
:103BF000D1FC40212068FFF7F2FC0020D5E700202F
:103C0000D3E70120D1E70220704701F01F014FF0F8
:103C1000010C0CFA01FC036A23EA0C030362036A39
:103C20008A4013430362704710B50446084651BBEF
:103C300094F83E30DBB2013B18BF0123002B5BD16F
:103C4000002839D1022384F83E3001220146206841
:103C5000FFF7DBFF23682A4A93423DD02368284AB6
:103C600093423ED0B3F1804F3BD0A2F594329342C1
:103C700037D002F58062934233D01A6842F00102D5
:103C80001A60002039E0042908D008290DD094F8E2
:103C90004130DBB2013B18BF0123CFE794F83F303E
:103CA000DBB2013B18BF0123C8E794F84030DBB218
:103CB000013B18BF0123C1E7042805D0082807D01D
:103CC000022384F84130C0E7022384F83F30BCE788
:103CD000022384F84030B8E75A6C42F400425A6438
:103CE000BCE79A6802F00702062A07D01A6842F079
:103CF00001021A60002000E0012010BD0020FCE756
:103D0000002C014038B5044690F83E00C0B294F84B
:103D10003F3094F84220D2B294F843C00D46B1B976
:103D2000012849D1012A48D1022384F83E3084F881
:103D300042307DB3042D39D0012200212068FFF7E5
:103D400064FF012204212068FFF75FFF27E0DBB258
:103D50005FFA8CFC042912D0012833D1012B2CD11D
:103D6000012A31D1BCF1010F30D1022384F83E3059
:103D700084F83F3084F8423084F84330D9E7012B8F
:103D80001CD1BCF1010F1BD1022384F83F3084F811
:103D90004330CEE7012200212068FFF736FF22687A
:103DA000136843F001031360002006E001220421A0
:103DB0002068FFF72AFFF2E7012038BD0120FCE769
:103DC0001846FAE70120F8E71846F6E71046F4E748
:103DD00090F83C20012A2CD010B40346012280F830
:103DE0003C20022280F83D2002685068946820F050
:103DF000700C086840EA0C0050601A680E48824255
:103E00000AD0B2F1804F07D0A0F59430824203D09F
:103E100000F58060824204D124F080044968214387
:103E20009160012283F83D20002083F83C0010BC03
:103E300070470220704700BF002C01407047704758
:103E4000FEE7FEE7FEE7FEE7FEE7704770477047D4
:103E500008B5FDF711FD08BD08B50248FEF770FD75
:103E600008BD00BFC010002008B50A48FFF7FAFBE4
:103E70000948FDF745FC094B1B78032B03D00133A0
:103E8000064A137008BD054B00221A700248FDF760
:103E900067FCF7E7F402002098010020D00300201F
:103EA00084B001A880E80E00002004B070470346EB
:103EB0000020A3F844004FF43F42A3F8402070478D
:103EC000B0F8403023F47C535B045B0CA0F8403026
:103ED000002070470020704784B0844601A880E825
:103EE0000E000123ACF840300020ACF84000ACF8E4
:103EF0004400ACF8500004B0704710B5034691F888
:103F000000C030F82C2092B222F4EC4222F0700271
:103F100092B2C878032861D8DFE800F0555C0258F7
:103F2000002048F2800E42EA0E0223F82C2091F87D
:103F300000C033F82C2092B222F4E04222F070024A
:103F400042EA0C0242EA0E0223F82C200A7B002AE5
:103F500040F0DC804A78002A51D0B3F8502092B269
:103F60001A440C7802EB0412B1F806C04FEA5C0C5C
:103F70004FEA4C0CA2F800C40C7833F8242012F05D
:103F8000400F0CD033F8242092B222F4E04222F009
:103F9000700242F4004242F0C00223F82420CA78A2
:103FA000012A1DD0097833F8212092B222F4E04290
:103FB00022F0400282F0200242F4004242F08002ED
:103FC00023F8212017E142F40072AAE742F4C0620C
:103FD0000020A6E742F480620020A2E70120A0E7CB
:103FE000097833F8212092B222F4E04222F0400214
:103FF00042F4004242F0800223F82120FBE0B3F8B3
:10400000502092B21A440C7802EB0412B1F806C0A8
:104010004FEA5C0C4FEA4C0CA2F808C4B3F85020ED
:1040200092B21A440C7802EB0412B2F80CC4CCF32E
:10403000090CA2F80CC40C693E2C39D94FEA541E65
:1040400014F01F0F01D10EF1FF3EB2F80CC41FFA9D
:104050008CFC4FEA8E2E1FFA8EFE4CEA0E0C4CF4AE
:10406000004CA2F80CC40C7833F8242012F4804FD2
:104070000CD033F8242092B222F4E04222F07002F5
:1040800042F4404242F0800223F82420097869BBC0
:1040900033F8212092B222F4804222F0700282F49E
:1040A000405242F4004242F0800223F82120A2E074
:1040B0004CB9B2F80C446FEA44446FEA5444A4B2D9
:1040C000A2F80C44CFE74FEA540C14F0010F01D0D2
:1040D0000CF1010CB2F80C44A4B24FEA8C2C1FFA7C
:1040E0008CFC44EA0C04A2F80C44BCE733F8212011
:1040F00092B222F4804222F0700282F4005242F422
:10410000004242F0800223F8212074E0CA78022A9B
:1041100072D00C7833F8242092B222F4E24222F0DA
:10412000700242F4004242F0800223F82420B3F8E7
:10413000502092B21A4491F800C002EB0C12B1F870
:1041400008C04FEA5C0C4FEA4C0CA2F800C4B3F86C
:10415000502092B21A4491F800C002EB0C12B1F850
:104160000AC04FEA5C0C4FEA4C0CA2F808C44A782B
:10417000002A50D10C7833F8242012F4804F0CD050
:1041800033F8242092B222F4E04222F0700242F48A
:10419000404242F0800223F824200C7833F8242097
:1041A00012F0400F0CD033F8242092B222F4E042F7
:1041B00022F0700242F4004242F0C00223F82420B0
:1041C00091F800C033F82C2092B222F4804222F001
:1041D000700282F4405248F28004224323F82C20DB
:1041E000097833F8212092B222F4E04222F0400212
:1041F000224323F8212010BD0C7833F8242092B2FA
:1042000022F4E04222F0700242F4014242F08002C5
:1042100023F824208BE70C7833F8242012F4804F05
:104220000CD033F8242092B222F4E04222F0700243
:1042300042F4404242F0800223F824200C7833F804
:10424000242012F0400F0CD033F8242092B222F434
:10425000E04222F0700242F4004242F0C00223F831
:104260002420CA78012A1ED00C7833F8242092B278
:1042700022F4E04222F0400282F0200242F40042A6
:1042800042F0800223F82420097833F8212092B2EA
:1042900022F4804222F0700242F4004242F0800296
:1042A00023F82120A7E70C7833F8242092B222F4D7
:1042B000E04222F0400242F4004242F0800223F841
:1042C0002420E1E70B7B002B46D14B7813B30A780F
:1042D00030F8223013F0400F0CD030F822309BB26F
:1042E00023F4E04323F0700343F4004343F0C0039E
:1042F00020F822300A7830F822309BB223F4E043D1
:1043000023F0400343F4004343F0800320F82230BD
:10431000002070470A7830F8223013F4804F0CD018
:1043200030F822309BB223F4E04323F0700343F4CF
:10433000404343F0800320F822300A7830F82230DE
:104340009BB223F4804323F0700343F4004343F013
:10435000800320F82230DBE74B78002B4ED10A781F
:1043600030F8223013F4804F0CD030F822309BB25A
:1043700023F4E04323F0700343F4404343F080030D
:1043800020F822300A7830F8223013F0400F0CD099
:1043900030F822309BB223F4E04323F0700343F45F
:1043A000004343F0C00320F822300A7830F822306E
:1043B0009BB223F4E04323F0700343F4004343F043
:1043C000C00320F822300A7830F822309BB223F460
:1043D000804323F0700348F2800C43EA0C0320F87A
:1043E00022300A7830F822309BB223F4E04323F0E5
:1043F000400343EA0C0320F8223089E70A7830F8BA
:10440000223013F4804F0CD030F822309BB223F4CA
:10441000E04323F0700343F4404343F0800320F86B
:1044200022300A7830F8223013F0400F0CD030F8E8
:1044300022309BB223F4E04323F0700343F40043A3
:1044400043F0C00320F822300A7830F822309BB2C3
:1044500023F4E04323F0700343F4404343F080032C
:1044600020F822300A7830F822309BB223F4E0435F
:1044700023F0400348F2800C43EA0C0320F822307A
:104480000A7830F822309BB223F4804323F0700383
:1044900043EA0C0320F822303AE74B788BB10A78D4
:1044A00030F822309BB223F4E04323F0400383F042
:1044B000100343F4004343F0800320F8223000202F
:1044C00070470A7830F822309BB223F4804323F0FF
:1044D000700383F4805343F4004343F0800320F8D7
:1044E0002230ECE70B7B002B4BD14B7833B30A78AF
:1044F00030F8223013F0400F0CD030F822309BB24D
:1045000023F4E04323F0700343F4004343F0C0037B
:1045100020F82230CB78012B33D00A7830F82230C3
:104520009BB223F4E04323F0400383F0200343F4E1
:10453000004343F0800320F8223022E00A7830F86C
:10454000223013F4804F0CD030F822309BB223F489
:10455000E04323F0700343F4404343F0800320F82A
:1045600022300A7830F822309BB223F4804323F0C3
:10457000700383F4405343F4004343F0800320F876
:1045800022300020704711B98023A0F84C30002061
:1045900070470020704700207047B0F8440080B298
:1045A00070470020704701335B0800EB420000F5C4
:1045B000806008E00A7891F801C042EA0C2220F8F5
:1045C000042B0231013B002BF4D1704770B5054636
:1045D0000C464A78012A3BD00B7B002B40F0A68288
:1045E0008B690A69934240F284829B1A8B61B5F809
:1045F00050309BB22B44217803EB0113B3F80C1419
:10460000C1F30901A3F80C143E2A40F27682510945
:1046100012F01F0F00D10139B3F80C2492B28902B5
:1046200089B20A4342F40042A3F80C24227835F8F8
:1046300022309BB223F4804323F0700383F4405371
:1046400043F4004343F0800325F82230002070BD7E
:104650008E6909698E4200D90E46237B73B3E378D5
:10466000022B4DD0236A9B1B2362217835F8213021
:1046700013F0400F00F0F581002A40F0E281B5F818
:1046800050309BB22B4403EB0113B3F80C24C2F35C
:104690000902A3F80C243E2E40F2BA81710916F0EB
:1046A0001F0F00D10139B3F80C2492B2890289B2EC
:1046B0000A4342F40042A3F80C24CBE1B6B23346DD
:1046C000E28861692846FFF76EFFB5F850309BB26B
:1046D0002B44227803EB0213A3F80464227835F804
:1046E00022309BB223F4E04323F0400383F03003F5
:1046F00043F4004343F0800325F822300020A6E76E
:10470000236A994280F06681227835F822309BB284
:1047100023F4E04323F0700343F4014343F08003A8
:1047200025F82230236A9B1B2362227835F8223039
:1047300013F0400F00F0A7806378B3BBB5F850309A
:104740009BB22B4403EB0213B3F80C24C2F309020F
:10475000A3F80C243E2E0FD9710916F01F0F00D1BB
:104760000139B3F80C2492B2890289B20A4342F4A7
:104770000042A3F80C241AE04EB9B3F80C246FEAF7
:1047800042426FEA524292B2A3F80C240FE0720840
:1047900016F0010F00D00132B3F80C1489B2920266
:1047A00092B20A43A3F80C2401E0012B30D0B3B23B
:1047B000628961692846FFF7F6FE636933446361E5
:1047C000236A226993422DD99B1B23626378002BB5
:1047D00045D1B5F850309BB22B44227803EB02133D
:1047E000B3F80424C2F30902A3F804243E2E1DD911
:1047F000710916F01F0F00D10139B3F8042492B2E9
:10480000890289B20A4342F40042A3F8042428E052
:10481000B5F850309BB22B4403EB0213B2B2A3F8AD
:104820000C24C4E7002222621E46CFE74EB9B3F83B
:1048300004246FEA42426FEA524292B2A3F804247F
:104840000FE0720816F0010F00D00132B3F8041423
:1048500089B2920292B20A43A3F8042401E0012B28
:1048600006D0B3B2228961692846FFF79CFE35E77E
:10487000B5F850309BB22B44227803EB0213B2B24E
:10488000A3F80424EDE76378B3BBB5F850309BB2CE
:104890002B4403EB0213B3F80424C2F30902A3F878
:1048A00004243E2E0FD9710916F01F0F00D10139D3
:1048B000B3F8042492B2890289B20A4342F4004256
:1048C000A3F804241AE04EB9B3F804246FEA424274
:1048D0006FEA524292B2A3F804240FE0720816F075
:1048E000010F00D00132B3F8041489B2920292B2DF
:1048F0000A43A3F8042401E0012B30D0B3B222898B
:1049000061692846FFF74FFE636933446361236A98
:10491000226993422DD99B1B23626378002B45D1DA
:10492000B5F850309BB22B44227803EB0213B3F856
:104930000C24C2F30902A3F80C243E2E1DD97109E0
:1049400016F01F0F00D10139B3F80C2492B289027E
:1049500089B20A4342F40042A3F80C2428E0B5F8D7
:1049600050309BB22B4403EB0213B2B2A3F80424E1
:10497000C4E7002222621E46CFE74EB9B3F80C24EA
:104980006FEA42426FEA524292B2A3F80C240FE05F
:10499000720816F0010F00D00132B3F80C1489B27E
:1049A000920292B20A43A3F80C2401E0012B06D034
:1049B000B3B2628961692846FFF7F5FD8EE6B5F866
:1049C00050309BB22B44227803EB0213B2B2A3F80F
:1049D0000C24EDE7217835F8212092B222F4E2424E
:1049E00022F0700242F4004242F0800225F82120B9
:1049F000B5F8502092B22A44217802EB01129BB202
:104A0000A2F80434228961692846FFF7CCFD65E6E7
:104A10004EB9B3F80C246FEA42426FEA524292B2A6
:104A2000A3F80C2416E0720816F0010F00D0013232
:104A3000B3F80C1489B2920292B20A43A3F80C2480
:104A400008E0B5F850309BB22B4403EB0113B2B22F
:104A5000A3F80C24B3B2628961692846FFF7A3FD6D
:104A60003CE6B2BBB5F850309BB22B4403EB0113CC
:104A7000B3F80424C2F30902A3F804243E2E0FD98C
:104A8000710916F01F0F00D10139B3F8042492B256
:104A9000890289B20A4342F40042A3F8042421E0C7
:104AA0004EB9B3F804246FEA42426FEA524292B21E
:104AB000A3F8042416E0720816F0010F00D00132AA
:104AC000B3F8041489B2920292B20A43A3F8042400
:104AD00008E0B5F850309BB22B4403EB0113B2B29F
:104AE000A3F80424B3B2228961692846FFF75BFD6D
:104AF000F4E500228A611A4679E54AB9B3F80C2434
:104B00006FEA42426FEA524292B2A3F80C248DE55A
:104B1000510812F0010F00D00131B3F80C2492B209
:104B2000890289B20A43A3F80C247FE5CB78022BD3
:104B30004DD0012B40F02F8189692369994240F2C1
:104B4000E680C91AA161F2B9B5F8502092B22A44A0
:104B5000217802EB0112B2F80414C1F30901A2F8A2
:104B600004143E2B40F2D780580913F01F0F00D1D8
:104B70000138B2F8041489B2800280B2014341F4D2
:104B80000041A2F804146278002A40F0F680B5F8DB
:104B9000502092B22A44217802EB0112B2F80C1490
:104BA000C1F30901A2F80C143E2B40F2CD80590943
:104BB00013F01F0F00D10139B2F80C349BB28902F7
:104BC00089B20B4343F40043A2F80C342EE5F2B94A
:104BD000B0F850309BB203440A7803EB0213B3F8E9
:104BE0000424C2F30902A3F804240A693E2A31D935
:104BF000510912F01F0F00D10139B3F8042492B209
:104C0000890289B20A4342F40042A3F8042463787B
:104C1000002B51D1B5F850309BB22B44227803EBD6
:104C20000213B3F80C24C2F30902A3F80C2422697E
:104C30003E2A28D9510912F01F0F00D10139B3F8CB
:104C40000C2492B2890289B20A4342F40042A3F8CA
:104C50000C2433E04AB9B3F804246FEA42426FEA05
:104C6000524292B2A3F80424D1E7510812F0010F86
:104C700000D00131B3F8042490B28A0292B2024308
:104C8000A3F80424C3E74AB9B3F80C246FEA4242FC
:104C90006FEA524292B2A3F80C240FE0510812F0CE
:104CA000010F00D00131B3F80C2490B28A0292B205
:104CB0000243A3F80C2401E0012B1DD0E369002B73
:104CC0003FF4B4AC227835F8221044F2400303EAF2
:104CD00001008B4302D000287FF4A8AC35F82230C5
:104CE0009BB223F4E04323F0700343F4004343F00A
:104CF000C00325F8223099E4B5F850309BB22B441C
:104D0000227803EB0213228AA3F80C24D6E70023AF
:104D1000A3610B4617E74BB9B2F804146FEA41419F
:104D20006FEA514189B2A2F804142CE7590813F034
:104D3000010F00D00131B2F8040480B2890289B2B7
:104D40000143A2F804141EE74BB9B2F80C346FEA21
:104D500043436FEA53439BB2A2F80C3466E459080C
:104D600013F0010F00D00131B2F80C3498B28B026D
:104D70009BB20343A2F80C3458E4012A7FF456ACEA
:104D8000B5F8502092B22A44217802EB01129BB26E
:104D9000A2F80C344AE4012059E410B45C0800EB9A
:104DA000420000F5806007E030F8042B0A70C2F37F
:104DB00007224A700231013C002CF5D113F0010F9B
:104DC00001D003880B7010BC7047704708B50022F3
:104DD0000F49104800F00EFB70B90F490D4800F064
:104DE00020FB60B90D490B4800F065F950B909483E
:104DF00000F01EFB48B908BDFCF77AF9EDE7FCF7B7
:104E000077F9EFE7FCF774F9F1E7FCF771F9F2E7EE
:104E100060010020D4030020D80000201C010020E5
:104E200010B5D0F8B842D0F8BC325BB194F80002AB
:104E3000FF2807D09B6894F8012221469847FF235A
:104E400084F80032002010BD4323038000487047DF
:104E50005000002043230380004870479400002046
:104E600043230380004870470C0000200A2303807E
:104E7000004870471001002038B50446D0F8B852F9
:104E800000F0ACFAC5F80C02D4F8B8324BB1D4F843
:104E9000BC32DB6805F50371D5F8040298470020A1
:104EA00038BD0220FCE710B5D0F8B822D0F8C042D7
:104EB000F2B101EB810300EB8303DB694BB101EB42
:104EC000810C04EBCC04A46BB3FBF4FC04FB1C339B
:104ED00023B10023C2F81432002010BD01EB81037E
:104EE00000EB83030022DA61134600F067FAF3E770
:104EF0000220F2E7F0B583B006460C46D0F8B8724F
:104F000000238DF80730ADF804300B7813F06005FE
:104F100027D0202D53D1CA88DAB113F0800F0CD0DE
:104F2000D0F8BC329B68394660789847E2883946A9
:104F3000304600F08BFF002544E04B7887F80032C4
:104F40008B7987F80132CA88394600F094FF002532
:104F500038E0D0F8BC329B6800224878984700259A
:104F600030E04F780A2F10D00B2F1CD01FBB90F8C9
:104F70009C32032B03D000F0C3FB022522E0022267
:104F800001A900F063FF3D461CE090F89C32032B22
:104F900003D000F0B5FB022514E001220DF107015A
:104FA00000F054FF0EE090F89C32032B0AD000F082
:104FB000A7FB022506E000F0A3FB022502E000F0BB
:104FC0009FFB0225284603B0F0BD38B50446812179
:104FD00000F0BDF90025E5620121204600F0B7F997
:104FE000C4F86C518221204600F0B1F92564D4F850
:104FF000B8324BB1D4F8BC325B689847D4F8B802E9
:1050000000F0F6F9C4F8B852002038BD70B5044677
:10501000037CABBB4FF400730222812100F08CF9BA
:105020000125E5624FF4007302222946204600F074
:1050300083F9C4F86C51082303228221204600F032
:105040007BF9012323644FF4077000F0CDF9054686
:10505000C4F8B80268B3D4F8BC321B689847002380
:10506000C5F81432C5F81832267CCEB94FF4007357
:10507000D5F804220121204600F0A8F9304670BD81
:1050800040230222812100F057F90125E5624023E7
:1050900002222946204600F04FF9C4F86C51CAE7B5
:1050A0004023D5F804220121204600F08FF9002684
:1050B000E4E70126E2E719B1C0F8BC12002070470E
:1050C00002207047D0F8B832C3F80812C3F8102293
:1050D00000207047D0F8B832C3F80412002070479F
:1050E000D0F8B82292B108B5037C43B94FF40073ED
:1050F000D2F80422012100F069F9002008BD402304
:10510000D2F80422012100F061F9F6E7022070478D
:1051100000207047202811D021281ED1104B1A786A
:105120000A705A784A709A788A70DA78CA701A794E
:105130000A715A794A719B798B710EE00A78084B93
:105140001A704A785A708A789A70CA78DA700A792E
:105150001A714A795A718A799A710020704700BF92
:105160009806002038B50C46064D01462846FFF744
:10517000B1FF2846FFF7B4FF21880348FBF790FFF3
:10518000002038BDD4030020A00A002010B5064C32
:10519000002206492046FFF795FF05492046FFF704
:1051A00099FF002010BD00BFD4030020A0060020FE
:1051B000A00A0020022805D8DFE800F0050402005C
:1051C000012070470220704702680E4B9A4200D0BF
:1051D000704700B583B003F5DA33DA6942F40002B0
:1051E000DA61DB6903F400030193019B002211469D
:1051F0001420FCF799FB1420FCF7A6FB03B05DF824
:1052000004FB00BF005C004008B500F52C71D0F82D
:10521000EC0200F025F908BD08B501EB810300EBB5
:10522000C303D3F87C21D0F8EC0200F046F908BDA6
:1052300008B501EB810300EBC303DA6BD0F8EC0295
:1052400000F081F908BD08B5D0F8EC0200F022FAB0
:1052500008BD10B504468368022B09D10121D4F89A
:10526000EC0200F000FAD4F8EC0200F0D4F910BD22
:10527000FBF73EFFF2E7000010B50446D0F8EC0261
:1052800000F0F4F9A36923B1024A136943F006035D
:10529000136110BD00ED00E008B5D0F8EC0200F09D
:1052A000EEF908BD10B504461D48C0F8EC42C4F83C
:1052B000C0021C4B03600823436002238360002369
:1052C0008361C3610362FCF7D5FD30BB1823002264
:1052D0001146D4F8C002FDF73AFD58230022802180
:1052E000D4F8C002FDF733FDC02300228121D4F899
:1052F000C002FDF72CFD4FF4887300220121D4F881
:10530000C002FDF724FD4FF4807300228221D4F8FF
:10531000C002FDF71CFD002010BDFBF7E9FED5E73C
:10532000C0100020005C004008B5D0F8C002FCF7B7
:1053300029FEFFF73FFF08BD08B594461A466346AD
:10534000D0F8C002FDF7D4FBFFF734FF08BD08B565
:10535000D0F8C002FDF70AFCFFF72CFF08BD08B526
:10536000D0F8C002FDF77CFCFFF724FF08BD08B5AC
:10537000D0F8C002FDF7B0FCFFF71CFF08BDD0F865
:10538000C03211F0800F08D101F07F0101EB8101E3
:1053900003EBC10393F86A01704701F07F0101310B
:1053A00001EB810103EBC1039878704708B5D0F891
:1053B000C002FDF7B1FAFFF7FDFE08BD08B5D0F851
:1053C000C002FDF72BFCFFF7F5FE08BD08B5D0F8CD
:1053D000C002FDF7FDFBFFF7EDFE08BD08B5D0F8F4
:1053E000C002FDF712FC08BD00487047A00E002067
:1053F0007047704798B108B50346D0F8B40210B1B1
:105400000020C3F8B40209B1C3F8B012012183F837
:105410009C121A701846FFF745FF002008BD0220B5
:10542000704719B1C0F8B4120020704702207047CD
:1054300008B5FFF779FF002008BD08B5D0F8B432F1
:105440002BB11B68984700B908BD0220FCE7022079
:10545000FAE708B5D0F8B4325B689847002008BD79
:1054600038B5044600F52A75284600F035F90123C1
:10547000C4F89432B4F8AE32C4F8983294F8A81252
:1054800001F01F03012B08D0022B0BD07BB929465A
:10549000204600F0CFFA002038BD2946204600F013
:1054A000FDFAF8E72946204600F028FBF3E701F073
:1054B00080012046FFF753FFEDE738B504460D465F
:1054C00091BB1346D0F89422032A03D0052A24D096
:1054D000084633E0D0F86011D0F8642191420DD92C
:1054E000891AC0F860118A4206D98AB21946204644
:1054F00000F0D0FC284621E092B2F7E7D0F8B432B1
:105500001B691BB190F89C22032A04D0204600F0AE
:10551000C9FC284612E09847F8E70021C0F8941229
:10552000FFF71DFF284609E0D0F8B4329B6933B17C
:1055300090F89C22032A04D19847002038BD02200D
:10554000FCE70220FAE738B504460D46002953D19E
:105550001346D0F89422022A0CD0042A00D01AB99B
:1055600080212046FFF7FBFE94F8A032012B3ED0AD
:10557000284638BD026A416A8A421BD8C269B2FB1A
:10558000F1F301FB13232BB9914203D8D0F89832E1
:105590009A421CD3D4F8B432DB681BB194F89C2235
:1055A000032A21D080212046FFF7D9FE204600F0B3
:1055B00084FCD9E7521A026292B2194600F053FCF9
:1055C00000231A4619462046FFF700FFCCE70022C9
:1055D000114600F048FC0021C4F898120B460A4618
:1055E0002046FFF7F3FEBFE720469847DAE700239F
:1055F00084F8A0322846BCE7D0F8B4325B6933B1F6
:1056000090F89C22032A04D198470020B1E7022099
:10561000AFE70220ADE770B50446402300221146F3
:10562000FFF78AFE0125C4F858514026C4F864618A
:105630003346002280212046FFF77EFEA561666288
:1056400084F89C520023C4F894326360C4F8A432F6
:10565000D4F8B8322BB1D4F8B4325B6800212046BC
:105660009847002070BD01740020704790F89C326C
:1056700080F89D32042380F89C320020704790F817
:105680009C32042B01D00020704790F89D3280F8A6
:105690009C32F8E708B590F89C32032B01D000202B
:1056A00008BDD0F8B432DB69002BF8D09847F6E794
:1056B0000346002002E00130C0B201331A78002A0C
:1056C000F9D1704708B54B88012B00D008BDC0F850
:1056D000A43200F0E7FBF9E70B7803704B784370D6
:1056E0008B78CA7803EB022343800B794A7903EB6A
:1056F000022383808B79CA7903EB0223C38070472E
:1057000010B504468021FFF72AFE00212046FFF74E
:1057100026FE10BD30B583B005460C460023ADF81B
:1057200006304A88130A013B062B00F2A480DFE80A
:1057300003F004182CA2A2869300D0F8B0321B68A4
:105740000DF10601007C9847BDF806201AB1E388E8
:10575000002B40F09480E388002B00F09A8003B087
:1057600030BD037C43B9D0F8B4329B6A0DF106001A
:10577000984702234370E7E7D0F8B432DB6A0DF1B3
:105780000600984702234370DEE7D2B2052A52D8BA
:10579000DFE802F003101D2A3744D0F8B0325B680E
:1057A00023B10DF10601007C9847CDE72146FFF7B4
:1057B000A7FFD4E7D0F8B0329B6823B10DF1060102
:1057C000007C9847C0E72146FFF79AFFC7E7D0F86B
:1057D000B032DB6823B10DF10601007C9847B3E7D6
:1057E0002146FFF78DFFBAE7D0F8B0321B6923B12D
:1057F0000DF10601007C9847A6E72146FFF780FFE0
:10580000ADE7D0F8B0325B6923B10DF10601007C41
:10581000984799E72146FFF773FFA0E7D0F8B03229
:105820009B6923B10DF10601007C98478CE7214666
:10583000FFF766FF93E72146FFF762FF8FE7037CE0
:1058400033B9D0F8B4325B6B0DF1060098477BE7B3
:105850002146FFF755FF82E7037C43B9D0F8B43205
:105860001B6B0DF106009847072343706CE7214638
:10587000FFF746FF73E72146FFF742FF6FE79A42C3
:1058800028BF1A46ADF806200146284600F0DEFA89
:1058900061E7284600F006FB61E738B504468B88CF
:1058A000F3B9CB88E3B94B887F2B19D803F07F0578
:1058B00090F89C32032B0CD080F89E522946FFF7BB
:1058C00075FD204600F0EEFA35B1022384F89C32D3
:1058D00009E0FFF715FF06E0012384F89C3202E09F
:1058E0002046FFF70DFF38BD38B504460D468978D0
:1058F000284B197001290ED890F89C32022B0ED03B
:10590000032B21D02946FFF7FBFE224B19782046B6
:10591000FFF79FFD02E02946FFF7F2FE38BD81B197
:105920004160032380F89C32FFF787FD022803D0F3
:10593000204600F0B7FAF1E729462046FFF7E0FEDF
:10594000ECE700F0AFFAE9E789B1436899421DD06E
:10595000D9B2FFF77EFD0F4B197861602046FFF743
:105960006CFD02280DD0204600F09CFAD6E70223F9
:1059700080F89C324160FFF76CFD204600F092FAFF
:10598000CCE729462046FFF7BBFEC7E700F08AFABE
:10599000C4E700BFB013002008B5CB88012B0AD1A3
:1059A00090F89C32022B09D9032B11D10122011D41
:1059B00000F04CFA01E0FFF7A3FE08BD5BB23BB17B
:1059C0000146002341F8083F012200F03FFAF4E7C6
:1059D000FFF796FEF1E708B590F89C32013B022BE9
:1059E00012D8CB88022B0CD10123C360D0F8A4328B
:1059F0000BB10323C360022200F10C0100F026FA70
:105A000008BDFFF77DFEFBE7FFF77AFEF8E708B574
:105A100090F89C32013B022B09D84B88012B00D017
:105A200008BD0023C0F8A43200F03CFAF8E7FFF705
:105A300067FEF5E708B50B7803F06003202B05D06F
:105A4000402B03D043B1FFF75BFE03E0D0F8B43244
:105A50009B689847002008BD4B78092B1BD8DFE8CE
:105A600003F011171A141A08051A0E0BFFF752FE4D
:105A7000F0E7FFF712FFEDE7FFF736FFEAE7FFF782
:105A80008BFFE7E7FFF7A7FFE4E7FFF71BFEE1E780
:105A9000FFF7BDFFDEE7FFF733FEDBE738B505466E
:105AA0000C460B7803F06003202B06D0402B04D06B
:105AB0001BB1FFF725FE002038BD95F89C32013B55
:105AC000022B16D82379012B0ED8D5F8B4329B6857
:105AD000214628469847E388002BECD10028EAD1DC
